:100000000056002071680000C1670000D167000041
:10001000E9670000016800001968000000000000A6
:100020000000000000000000000000003168000037
:100030004168000000000000516800006168000095
:10004000A96700000000000000000000F50F01009B
:10005000250F0100A10F01000000000000000000BA
:1000600025470000EDF30000CDF300003D10010036
:100070000000000000000000000000005D10010012
:100080002DE9F843054688464FF0A0441C4EDFF8A2
:1000900078901C4F237E002BFCD1A37E2BB94FF010
:1000A00001022274A37E002BFBD072B6735DF3B9FC
:1000B00000F02EF8C0B90122D9F8103043F0040343
:1000C000C9F8103087F83220BFF34F8F00BF30BF20
:1000D00087F83200D9F8103023F00403C9F8103043
:1000E000BFF34F8F62B6D5E700BF30BFFAE70023FA
:1000F0007355B8F1000F00D0C04762B6BDE8F88371
:10010000942800200000105000ED00E000000000E6
:100110005FF800F06D460000FFFFFFFFFFFFFFFFED
:10012000FFFFFFFFFFFFFFFFFFFFFFFFFFFFFFFFDF
:10013000FFFFFFFFFFFFFFFFFFFFFFFFFFFFFFFFCF
:10014000FFFFFFFFFFFFFFFFFFFFFFFFFFFFFFFFBF
:10015000FFFFFFFFFFFFFFFFFFFFFFFFFFFFFFFFAF
:10016000FFFFFFFFFFFFFFFFFFFFFFFFFFFFFFFF9F
:10017000FFFFFFFFFFFFFFFFFFFFFFFFFFFFFFFF8F
:10018000FFFFFFFFFFFFFFFFFFFFFFFFFFFFFFFF7F
:10019000FFFFFFFFFFFFFFFFFFFFFFFFFFFFFFFF6F
:1001A000FFFFFFFFFFFFFFFFFFFFFFFFFFFFFFFF5F
:1001B000FFFFFFFFFFFFFFFFFFFFFFFFFFFFFFFF4F
:1001C000FFFFFFFFFFFFFFFFFFFFFFFFFFFFFFFF3F
:1001D000FFFFFFFFFFFFFFFFFFFFFFFFFFFFFFFF2F
:1001E000FFFFFFFFFFFFFFFFFFFFFFFFFFFFFFFF1F
:1001F000FFFFFFFFFFFFFFFFFFFFFFFFFFFFFFFF0F
:10020000FFFFFFFFFFFFFFFFFFFFFFFFFFFFFFFFFE
:10021000FFFFFFFFFFFFFFFFFFFFFFFFFFFFFFFFEE
:10022000FFFFFFFFFFFFFFFFFFFFFFFFFFFFFFFFDE
:10023000FFFFFFFFFFFFFFFFFFFFFFFFFFFFFFFFCE
:10024000FFFFFFFFFFFFFFFFFFFFFFFFFFFFFFFFBE
:10025000FFFFFFFFFFFFFFFFFFFFFFFFFFFFFFFFAE
:10026000FFFFFFFFFFFFFFFFFFFFFFFFFFFFFFFF9E
:10027000FFFFFFFFFFFFFFFFFFFFFFFFFFFFFFFF8E
:10028000704700BF034613F8012B002AFBD1181A50
:100290000138704700487047F4E10100232070479F
:1002A0000620704708B506F0EBF908BD08B506F062
:1002B00077FA43690148984708BD00BFF4E101009F
:1002C00010B50C4611461A46012807D010B1022875
:1002D0000BD010BDE0B200F041F8FAE7BDF80830ED
:1002E000C9B2E0B200F07CF8F3E7E0B200F02AF91E
:1002F000EFE700BF044B00229A80DA805A819A818E
:10030000B4221A81704700BFA0290020014B187841
:10031000704700BFA029002010B40446034B0FCB48
:1003200084E80F00204610BC704700BFA4290020BD
:1003300082B0094B5B690020DAB262F30700C3F3B5
:10034000072262F30F20C3F3074262F317401B0E2C
:1003500063F31F6002B07047A029002010B5044667
:100360001D4B1B7813F0030F02D010F00C0F15D1AA
:1003700014F0030F1CD113F0080F02D014F0040F77
:1003800022D113F0040F15D014F0080F12D0124B25
:1003900000229A80DA80B4221A810BE006F070F90C
:1003A00002690D4B1A61FFF7A5FF00F001F901E0AA
:1003B000FFF7A0FF084B1C70084C204600F032FEEF
:1003C000204600F025FB10BD034B00229A80DA8006
:1003D000B4221A81EEE700BFA0290020FCE1010051
:1003E00010B5044600F046FF042C00D010BDFFF706
:1003F0008DFF10F00C0F05D000F04DFF43689847BB
:1004000000F0E0F84B4C204600F05AFE204600F089
:10041000A5FB494B1A78042A37D0082A4AD0464B04
:100420005B89B3F5616F05D3434B002159819989ED
:1004300001319981404B99894EF66023994251D000
:100440003D4BD9884EF6602399424FD03A4B99885C
:100450004EF6602399424DD012F0080FC6D000F03E
:100460001AFF4368984703689847002846D1324BE3
:100470001B7813F0080FB9D02E4800F05BFE00285F
:1004800048D02D4BB4221A81B0E72B49CB880133D9
:100490009BB2CB802949A1FB0301490901EB8101F2
:1004A000A3EBC1039BB2002BB9D123494B89013384
:1004B0004B81B4E720490B89013B0B818B880133C9
:1004C0009BB28B801E49A1FB03014909C1EB0111BD
:1004D000A3EB81039BB2002BA1D117494B890133B8
:1004E0004B819CE7144B00219981A9E7124B002115
:1004F000D980ABE7104B00219980ADE700F0CBFE2F
:100500004368984700F067FD0128B0D10A4BB42238
:100510001A81ACE7084B1B7813F0080F3FF466AF65
:10052000054B1B89002B7FF461AF06F039F9036896
:1005300098475BE7FCE10100A0290020CDCCCCCCA2
:100540008988888810B5062819D8DFE800F01904D2
:100550001D201823260006F093F8044606F020F923
:10056000C3684FF48062002120469847FFF7C2FE1F
:100570000D4800F057FD04F1F00000F036FA10BD10
:10058000094800F073FDFAE7084B1975F7E7074BC8
:100590005975F4E7054B9975F1E7044BD975024895
:1005A00000F040FDEBE700BFFCE10100A0290020C6
:1005B00008B580220021024819F0DFFC08BD00BF09
:1005C000B82900202DE9F04F85B0824600229249DB
:1005D00011F832306FF3C71301F8323001EBC20368
:1005E00058786FF3C710587098786FF3C7109870E9
:1005F000D8786FF3C710D87018796FF3C7101871D7
:1006000058796FF3C710587198796FF3C7109871C4
:10061000D8796FF3C710D8710132102AD8D1DAF81F
:100620000030984703900023029345E04FF0010803
:100630004FF0140CB5423AD801974FF04C093346AD
:10064000464698462BE04FF001084FF0140CF1E7B6
:10065000425C42F08002425402F07F0202EB0C0B3B
:10066000BBF14C0F0FDD425C69F3060242540133CB
:100670009BB29C420FD319461EF80320D209E7D043
:10068000002EF4D0E4E7624410F801B062F3060BE8
:1006900000F801B0EBE70135ADB2A84507D3A7429A
:1006A000F9D8019B5C4A02EBC50E7046E3E7029B5A
:1006B000013302930A2B66D09DF80880DAF81C30CB
:1006C00040469847012805D0DAF81C304046984744
:1006D0000228ECD1DAF80C30404698478146DAF827
:1006E000103040469847834603014C4A82FB03265C
:1006F000F218DE17C6EBE2264FEAC903484A82FB2E
:1007000003271F44DB17C3EBA727DAF81430404652
:100710009847DAF8083040469847002814BF10245C
:100720000224B6B2351B25EAE575ADB226440F2E7C
:10073000A8BF0F26B6B2BBB21F1B27EAE777BFB22E
:100740001C44072CA8BF0724A4B2DAF8083040469E
:100750009847A9F143091FFA89F940F2B233994544
:100760003FF664AFBBF16E0F7FF66DAF002814BF8C
:100770004FF0140C4FF0010C002814BF4FF001088B
:100780004FF0000856E70026234F1FE0043AE55CCF
:1007900062F30605E55404E0013AE55C62F3060500
:1007A000E5540133082B0ED0C25CD209F9D1C25CEA
:1007B00002F07F02122AEFD8032AE7D8E25C6FF337
:1007C0000602E254EDE70136102E04D0002307EBB9
:1007D000C6000446E8E7039B1BB1002421460E4DEA
:1007E00005E0FFF7E5FEF8E70134102C0DD00023FB
:1007F00005EBC400C25C02F07F02092A84BF01310C
:1008000089B20133082BF5D1EEE7034BA3F8801032
:1008100005B0BDE8F08F00BFB8290020E1000EE070
:1008200049D6B9F22DE9F04F83B00646019114463E
:100830000368984770B13E4A92F88230013382F8DB
:100840008230A146002C5ED00027B8469346DFF8E0
:10085000E8A037E0FFF7ACFE4FF00008019B83F8FB
:10086000008055E0F3682046984740B3336920463E
:10087000984720B3F36820469847054633692046D9
:10088000984700018AFB00230344C017C0EBE32014
:1008900080B2ED00274B83FB05232B44ED17C5EBFE
:1008A000A325ADB20BEBC000435D03F07F03122B19
:1008B00005D808F101085FFA88F8019B1C70013720
:1008C0004F4510D0FCB2F369204698470128C9D0A3
:1008D000F369204698470228C4D0F3692046984718
:1008E0000328ECD1BEE7B8F1000F0CD0104BB3F8E1
:1008F0008030402B10D8B8F1010F09D012D9002355
:10090000019A137004E04FF00008019B83F8008007
:10091000404603B0BDE8F08F4FF00008019B83F81C
:100920000080F5E74FF00008019B83F80080EFE7B7
:10093000B829002049D6B9F2E1000EE0431E9BB26F
:100940004FF6FD7293421CD84B1E9BB293421AD8AD
:1009500009010E4B83FB01231944C1F3CF21C000D1
:100960000B4B83FB00231844C0F38F20094B03EB90
:10097000C101085C00F07F0013288CBF002001201B
:100980007047012070470120704700BFE1000EE072
:1009900049D6B9F2B8290020F8B506460F4C2568AB
:1009A000238903EB83035B00F4336B8005F0F8FECF
:1009B0000435238903EB830307690A22314605EBDB
:1009C0004300B847238901339BB2238122685278C0
:1009D0009A4201D800222281F8BD00BF3C2A0020A3
:1009E000704708B5FFF7D8FF08BD10B5044605F0FD
:1009F000D7FEC3684FF44472002120469847034B4A
:100A00001C60462363700A23237010BD3C2A00201B
:100A100030B5A5B00446436898474F4B1B7913F097
:100A2000030F09D0A368984710F0080F21D1A368DD
:100A3000984710F0040F1CD1474B1B7913F00C0F93
:100A400009D0A368984710F0020F41D1A3689847D6
:100A500010F0010F3CD1A36898473F4D2871E3681F
:100A600004A89847BDF81830EB8000236B8125B0AF
:100A700030BD002501950295ADF80C5005F090FEB3
:100A8000C3680A22294601A898479DF8043002222B
:100A900062F302038DF80430E36810A89847BDF8AC
:100AA0000430BDF8462062F30F13ADF80430E3685C
:100AB0000CA89847BDF83E30ADF80630E36808A8AA
:100AC00098470B9BADF8083001A8FFF765FFB3E727
:100AD000002501950295ADF80C5005F061FEC36844
:100AE0000A22294601A898479DF80430032262F3A0
:100AF00002038DF8043063689847BDF8043002881B
:100B000062F30B13ADF80430134A52891209C3F390
:100B1000072362F307138DF80530E36820A8984790
:100B2000BDF88230ADF80630E3681CA89847BDF8E0
:100B30007030ADF80830E36818A89847BDF86E30FB
:100B4000ADF80A30E36814A89847179BADF80C304D
:100B500001A8FFF721FF7EE73C2A00202DE9F04F96
:100B6000A7B0044643689847A368984710F0080F59
:100B700004D1A368984710F0040F3BD0236898472E
:100B800043689847054600F026FA90B123689847D5
:100B9000436898478046002603960496ADF8146093
:100BA00002460A2103A800F002FA37464FF00A096C
:100BB000A4E0284600F013FA0028E7D163689847BC
:100BC000B0F86030002B40F02B81944BDD8801356C
:100BD000E36816A89847BDF860309D4200F08F8109
:100BE000E3680DA898478D4BBDF83C20DA805A8900
:100BF00001325A8127B0BDE8F08FDAF80C30284670
:100C00009847DAF810302846984723689847436891
:100C10009847824600F0EBF9051EC0F2FA8063683F
:100C20009847C388ADF80430636898470389ADF8E6
:100C30000630636898474388BDF804201344ADF834
:100C40000830636898478388BDF806201344ADF8E0
:100C50000A30EDB2DAF80C30284698478346DAF8C5
:100C600010302846984701AA0146584600F078F906
:100C7000002840F0D0804FF4C973ADF8043040F63E
:100C80006A03ADF8063040F2A623ADF8083040F60E
:100C90002413ADF80A30DAF80C302846984783461A
:100CA000DAF810302846984701AA0146584600F065
:100CB00057F9003018BF01209DF81E3060F345132E
:100CC0008DF81E306368984790F86330C3F30203D1
:100CD0009DF8202063F302028DF820206368984776
:100CE00090F86230C3F30203BDF8202063F388124A
:100CF000ADF8202006A8FFF74FFE0136D8F80030E7
:100D00009847F3B28342BFF459AFF3B226AA134413
:100D100013F88C5C06970797ADF82070D8F81C3054
:100D200028469847012805D0D8F81C30284698470F
:100D30000328E2D123689847436898478246E368CE
:100D400009A89847BDF828B005F02AFDC3684A46AF
:100D5000394606A898479DF818306FF302038DF8BE
:100D60001830DAF81C3028469847012814BF0020B4
:100D700001209DF8183060F3C3038DF81830BDF8DA
:100D80001830BDF82A2062F30F13ADF818304FEA7F
:100D90001B129DF81A3062F303038DF81A309DF888
:100DA0001C306BF303038DF81C30DAF80C30284646
:100DB0009847BDF81A3060F30F13ADF81A30DAF81F
:100DC000103028469847BDF81C3060F30F13ADF87B
:100DD0001C302369984711909DF81E30C0B260F313
:100DE00001038DF81E30DAF81830284698479DF830
:100DF0001E3060F383038DF81E3003F00C030C2BC0
:100E00007FF4FBAE9DF81E3043F00C038DF81E30CE
:100E1000F3E6384650E701204EE700BF3C2A0020A9
:100E2000002309930A93ADF82C3023689847436850
:100E30009847064600F0DBF8051E4FDB05F0B0FCD6
:100E4000C3680A22002109A898479DF8243001228E
:100E500062F302038DF82430E36812A89847BDF8C6
:100E60002430BDF84E2062F30F13ADF824306368D0
:100E7000984790F8603013F0020F3AD163689847B2
:100E800090F8603013F0040F35D16368984790F8FC
:100E9000603013F0080F30D16368984790F86030E5
:100EA00013F0100F14BF062200229DF8263062F3C3
:100EB00003038DF82630EDB2F36828469847BDF855
:100EC000263060F30F13ADF8263033692846984773
:100ED000BDF8283060F30F13ADF8283009A8FFF7EC
:100EE0005BFD636898470023A0F860301B4A53817C
:100EF0006BE60122D9E70422D7E70522D5E70025D2
:100F000009950A95ADF82C5005F04AFCC3680A22F1
:100F1000294609A898479DF82430042262F3020369
:100F20008DF82430E36822A89847BDF82430BDF836
:100F30008E2062F30F13ADF82430E3681EA89847A3
:100F4000BDF88630ADF82630E3681AA898471D9B97
:100F5000ADF8283009A8FFF71FFD41E63C2A002024
:100F6000134672B1128882420DD89A8882420CD3FD
:100F7000DA888A420BD3588888428CBF002001202F
:100F80007047002070470020704700207047002005
:100F9000704710B50446084611460023224600F06B
:100FA000BBF90021204600F0E4F9C0B210BD08B53D
:100FB000002300F0B1F908BD08B500F0ADF908BD97
:100FC00008B5002100F0D5F9C0B208BD08B500F0A1
:100FD000D0F9C0B208BD08B500F076F908BD08B573
:100FE00000F086F908BD08B500F05AF908BD08B54B
:100FF00000F0E6F908BD000010B543689847048882
:10100000003418BF012405F0CBFB8368224603217E
:101010000220984705F0C4FB836822460321042080
:10102000984710BDF8B507460F4B1B68BBB10024AD
:1010300025460D4E56F8253053B156F825309847C1
:1010400003682BB156F8253098470368384698470F
:101050000134E4B2254656F82430002BEAD1384654
:10106000FFF7CAFFF8BD00BF1C120020F8B5074605
:10107000124B1B68F3B100242546104E56F825305C
:101080008BB156F82530984743683846984750B199
:1010900056F825309847C3682BB156F82530984745
:1010A000C368384698470134E4B2254656F82430E0
:1010B000002BE3D13846FFF79FFFF8BD1C1200203C
:1010C0002DE9F04107461A4B1B68002B2DD0002458
:1010D0002646174D05E00134E4B2264655F8243083
:1010E0001BB355F82630002BF5D055F8263098471D
:1010F0004368384698470028EDD055F82630984781
:1011000090F81480BB68984718EA000FE3D055F8B0
:10111000263098478368002BDDD055F82630984755
:101120008368384698470028D5D0BDE8F08100BFD5
:101130001C1200202DE9F04107461C4B1B68002BB8
:1011400032D000242646194D05E00134E4B226468B
:1011500055F824302BB355F82630002BF5D055F830
:10116000263098474368384698470028EDD055F810
:101170002630984790F81480BB68984718EA000F0B
:10118000E3D055F8263098470369002BDDD055F899
:10119000263098470369384698470028D5D0012063
:1011A00000E00020BDE8F0810020FBE71C120020D9
:1011B00008B5436898470078C0F3400008BD704701
:1011C00030B587B00446036898474368984702469D
:1011D0001F4903A800F03BFE9DF8153013F0020FE5
:1011E0002ED0BDF80C30CD3B9BB240F29D229342F5
:1011F00029D8BDF80E2040F67B039A4225D99DF8E8
:101200001430043BDBB2382B01D9002019E0002355
:10121000019302934FF00203012565F387138DF8C4
:10122000043005F0BDFA436801A898476368984701
:1012300090F8603043F0020380F86030284600E008
:10124000002007B030BD0020FBE70020F9E700BF19
:10125000482A002008B54FF49F73542240210248C9
:1012600000F0E0FD08BD00BF482A0020004870479C
:1012700010E2010010B51446012802D0022805D062
:1012800010BD1A46204600F087FFF9E719461046C0
:1012900000F050FFF4E70148704700BF28E201006A
:1012A00038B505460368984748B10024AB68E0B2FA
:1012B0009847034630B901340A2CF7D100E00023E7
:1012C000184638BD0123FBE738B505460368984743
:1012D00050B10024EB69E0B29847012806D00134F0
:1012E0000A2CF7D1002000E0002038BD0120FCE7E7
:1012F00038B505460368984750B10024EB69E0B261
:101300009847032806D001340A2CF7D1002000E0CA
:10131000002038BD0120FCE72DE9F84F82468946C0
:101320001646984600252F4609E07B1CDBB20AF8DA
:1013300007404B451BD01F4601350A2D17D0ECB294
:10134000F369204698470028F6D0F368204698476E
:101350008346336920469847B8F1000FE5D04246EE
:1013600001465846FFF7FCFD0028DED1E4E7BDE862
:10137000F88F2DE9F843074688460024264604E006
:101380000136F6B201340A2C17D0E5B2FB692846C3
:1013900098470028F6D0FB682846984781463B6965
:1013A00028469847B8F1000FEAD042460146484621
:1013B000FFF7D6FD0028E3D1E4E770B2BDE8F8837B
:1013C00038B505460368984760B10024EB69E0B280
:1013D000984728B901340A2CF8D14FF0FF3038BDB6
:1013E00060B2FCE74FF0FF30F9E7000008B5436852
:1013F00098470078C0F3C00008BD064B43221A800E
:101400006F225A8040F2F5329A8040F6F502DA8077
:10141000704700BF642A0020F0B585B00546036818
:101420009847436898470246204902A800F0D5FB38
:101430009DF80830022B03D00024204605B0F0BDF3
:10144000BDF80A70BDF80C60194A31463846FFF7FE
:1014500087FD04460028F0D00023009301934FF04D
:101460000203042262F38503012464F387138DF8D9
:10147000003047FA02F38DF8023046FA02F38DF895
:10148000033006F00F0646EA07168DF8046005F0F3
:1014900087F94368684698476B68984790F86030CA
:1014A00043F0080380F86030C7E700BF6C2A0020D3
:1014B000642A002010B584B00D4C462303936423A6
:1014C00002931E230193032200921223012104F1AF
:1014D000080000F05BFB432323806F23638040F20E
:1014E000F533A38040F6F503E38004B010BD00BFE0
:1014F000642A00200048704730E2010008B54368C4
:101500009847037813F0240F14BF0120002008BD72
:1015100038B543689847C58804894188294482883A
:101520002244034B5D809C80D9801A8138BD00BF66
:10153000982A00202DE9F04784B0804643689847F8
:101540000378C3F38009C3F34017D8F800309847F5
:10155000436898473C4E024606F1140102A800F089
:101560003CFB9DF808A0BDF80A50BDF80C40B21C29
:1015700021462846FFF7F4FC30BB06F10A0221465B
:101580002846FFF7EDFC034600285AD1184604B060
:10159000BDE8F0872C4B1A700023F7E71FB32A4BE6
:1015A0001B78012B1FD00023F0E7D8F804309847B0
:1015B00090F8603043F0040380F860300123E5E7E1
:1015C0000023E3E70023E1E70022BAF1010FE1D0B5
:1015D000BAF1020FF4D1B9F1000FDFD01FB91A4BE5
:1015E0001B78002BEED1002301934FF00203012260
:1015F00062F3850362F387138DF80030124E33785F
:101600008DF801302B118DF8023023118DF8033045
:1016100004F00F0444EA05158DF8045005F0C0F8F5
:101620004368684698473378002BBED0D8F804301A
:10163000984790F8603043F0200380F86030012331
:10164000A4E70122C1E700BF982A002070B586B048
:101650000646036998470590040E0CBF6423832354
:10166000002C0CBF46220A22194D03920293242318
:1016700001930723009312230322022105F1140092
:1016800000F084FA73689847C6880189428832441A
:1016900083880B446E80A980EA802B81002C14BFC4
:1016A0006521432140F21A3208BF6F2240F2D33045
:1016B00040F2F533002C14BF04461C466981AA8110
:1016C000EC8140F6F5022A8200222A7006B070BD35
:1016D000982A00200048704748E2010070B506468D
:1016E00000242546736898472044457601341B2C16
:1016F000F8D170BDF0B583B00246124B93E80300F9
:1017000002AB03E90300136898474368984705460E
:101710000D4CC368A07A984706462B69A07A984773
:101720000746EB69A07A9847022802D0002003B050
:10173000F0BD6A4639463046FFF712FC003018BF4C
:101740000120F4E760E20100D82A002008B54368D0
:101750009847037D012B0CBF01210321014800F0B4
:1017600040FC08BDD82A00202DE9F04F8FB0074675
:101770000368984743689847044640F2A713ADF8BA
:10178000303040F29A73ADF8323040F29223ADF827
:10179000343040F68503ADF836300CAB02466D4967
:1017A00009A800F02DFCBDF824300093BDF826A058
:1017B0009DF82EB0BBF1010F12D0664B9B7C012B24
:1017C00040F0C680E3699DF82D00984703280BD0B0
:1017D00050B1022838D0BBF1010F7ED000242FE099
:1017E0005C4B01229A74EDE700245A4B9C743846F6
:1017F000FFF774FF0394022343F00C02012464F307
:1018000087128DF808208DF80930009A13118DF891
:101810000A304FEA2A138DF80B300AF00F0A4AEA11
:10182000021A8DF80CA004F0BBFF436802A8984789
:101830007B68984790F8603043F0100380F8603080
:1018400020460FB0BDE8F08F00260296039604965E
:10185000059606960796CDF81F6012234FF00109F2
:10186000CDF804A09A4624E001350F2D19D0741943
:10187000A4B23B6898470368032098470368414631
:10188000E8B298476428EFDD0EAB03EBD40304F015
:10189000070409FA04F413F8302C144303F8304C0D
:1018A000E2E70F36B6B20AF1010A1FFA8AFAD22E1F
:1018B00003D000255FFA8AF8D9E7DDF804A002AE6C
:1018C0000DF123083446A51B7B68984714F8013BAB
:1018D00028444376A045F6D17DE70CAABDF82A102E
:1018E000BDF82800FFF73CFB04460028A8D07B6821
:1018F0009847027D012A14BF00220122002303938E
:101900004FF00203032161F38503012464F387137D
:101910008DF808308DF80920009A13118DF80A30DF
:101920004FEA2A138DF80B300AF00F0343EA021333
:101930008DF80C3004F034FF436802A898477B68A8
:10194000984790F8603043F0100380F8603077E7F4
:10195000002475E7D82A002010B54368984704781A
:10196000C4F300140CB9204610BD04F019FF8368BD
:101970000122032110469847F5E770B504464368F5
:101980009847037D012B0F4E4FF04F030CBF0122F0
:1019900003221946304600F026FB0025B574204688
:1019A000FFF79CFE636898470F2343756368984769
:1019B0000E238375636898471B23C3756368984734
:1019C000057670BDD82A00200048704768E2010003
:1019D00010B50446C28A038A9A4202D9012343758C
:1019E000837494F82530012B0FD0227D0A4B53F8D5
:1019F00022302046984701280CD0022814BF00202E
:101A00000220638D0133638510BD042363750123B8
:101A1000A374EAE70120F4E730120020C289B0F98C
:101A20001830B0F920105B1A002BB8BF5B4293420C
:101A300018DCB0F91A30B0F922105B1A002BB8BFCD
:101A40005B429A4210DBB0F9262043889A4207DCB9
:101A5000B0F92A3040898342CCBF00200120704772
:101A600000207047002070470020704770B5044682
:101A700090F82450012D05D9AB1EDBB2012B08D9FB
:101A8000002070BD0123837400202075032363753B
:101A9000F7E7C68C013636B2C684FFF7BFFF08B938
:101AA0000123A374032D01D00020EAE723889E427E
:101AB000BCBF0123A37463889E42C4BF0123A374E7
:101AC00000232375E27C237B9A4201D00020D8E7D3
:101AD000B4F92830A2889342BCBF0122A274E288E4
:101AE0009342C4BF0123A374B4F92A3022899342DC
:101AF000BCBF0122A27462899342C4BF0123A374B4
:101B000000232385A37C4BB10020A0746685A38BA2
:101B10002383E38B63830123E374B2E70023E3743D
:101B20000220AEE710B5044690F8243023B9038DA7
:101B300001330385002010BD012B25D1FFF76EFF77
:101B400018B9022363750123A3740122E284E37CA4
:101B50001344DBB2E3742275B4F92010A183B4F905
:101B60002220E2833BB1A37C2BB9E07C012814BF87
:101B700000200120DFE70020A07401236385208579
:101B800021836283E374F0E70020D4E730B4BDF82A
:101B90000850BDF80C400280438001FB02F292B273
:101BA000AB1A8380A21AC280058144810173BDF8FB
:101BB0001030C381BDF81430038200238374C374D2
:101BC00003854385C38443754FF6FF7202834283C6
:101BD0008283C283037530BC7047F0B585B005467B
:101BE0000C461646002301930293ADF80C30498B46
:101BF000208BFEF7A3FED0B10A2201A93046FEF7E2
:101C000011FE012822D90023A374E3742385638580
:101C1000E38463754FF6FF7222836283A283E283BB
:101C200023752B706B80AB80284605B0F0BD002378
:101C3000A374E37423856385E38463754FF6FF72B1
:101C400022836283A283E2832375D5E79DF8047023
:101C5000E0B1F3683846984720843369384698479E
:101C60006084F3693846984784F824003046FFF7CB
:101C7000BAF998B9002384F825302046FFF7A8FE6A
:101C8000228B638B28706A80AB80CDE74FF6FF73A1
:101C900023846384002384F82430E7E7012384F855
:101CA0002530EAE770B504460E461578CB6928461C
:101CB0009847012801D0012070BD00232380638054
:101CC000A380E38023816381A381E3812374637410
:101CD000227E02F0F80263F3C3022276F3682846FC
:101CE0009847A081336928469847E081237C0133D7
:101CF0002374E0E72DE9F04104460F461678CB68DF
:101D00003046984780463B69304698470546FB6910
:101D100030469847032841D0A389A8EB03031BB2A0
:101D20002380B4F902209A42B8BF1A461646628050
:101D3000B4F904709F42A8BF1F46A780E089281A03
:101D400000B2E080B4F908208242B8BF0246228186
:101D5000B4F90A108142A8BF01466181B4F912505A
:101D600001EB050C604553DA491B884250DD521BDC
:101D7000904203DC227E42F002022276EA1993426C
:101D80004BDA7F1BBB4248DD721B9342DEBF237ED2
:101D900043F0080323760120BDE8F081002323747B
:101DA000B4F90020E38A9A4222DB217E01F0080187
:101DB000002914BF0020102059428A4206DC227EEE
:101DC00012F0040F04BF40F00800C0B2B4F90620BE
:101DD00093420FDC237E13F0020F0BD140F004007E
:101DE000C0B29142D8DB237E13F0010F08D0D3E7B5
:101DF0000020E1E7914207DB237E13F0010F03D1BE
:101E000040F00200C0B2C7E7002808BF0120C3E7C6
:101E1000217E41F001012176A9E7227E42F00402F1
:101E20002276B1E741828282C3820023038043800D
:101E30008380C380038143818381C381037443749E
:101E4000027E02F0F80263F3C302027670472DE9C6
:101E5000F04186B004460D46164600238DF8173033
:101E6000314903AA03C982E8030000930193ADF846
:101E700008300A2269463046FFF78BF880469DF805
:101E800000708DF81770F36938469847002831D0F4
:101E9000B8F1010F2ED1736938469847AB8A834257
:101EA00028D3B3683846984720BBF3689DF81700DD
:101EB0009847804633699DF81700984707462B7C62
:101EC00006AA02EB830353F80C3C0DF117023146CE
:101ED00028469847A989EA896B7C5E1C6E7421802C
:101EE0006280A4F80480E78023726072204606B006
:101EF000BDE8F08100232B806B80AB80EB802B81D1
:101F00006B81AB81EB812B746B742A7E02F0F8023B
:101F100063F3C3022A7623806380A380E380237265
:101F200001236372E2E700BF80E2010070B504465E
:101F30000E461546CB6910469847012801D000206F
:101F400070BD0023237223806380A380E3806372CB
:101F5000A372E372F36828469847208033692846C5
:101F600098476080A572637A01336372E7E7F8B53A
:101F700004460E461546CB69104698470746F36857
:101F800028469847A080336928469847E080238AEE
:101F90009BB9A289B4F90030B4F904105B1A002B84
:101FA000B8BF5B42934213DCB4F9023000B2181A96
:101FB0000028B8BF404282420ADB227AE3899A4273
:101FC00009D300236372E07AB0FA80F04009F8BDCB
:101FD0000123E372F1E7032F4FF0000008BF6072A6
:101FE000F5E7C18170478181C281038200230372BA
:101FF000038043808380C38043728372C3727047BF
:102000002DE9F04186B004460D4617461E460023D2
:1020100003604360836003930493ADF814300B8A2C
:102020003288D21AADF804207288D21AADF8062090
:10203000B2881A44ADF80820F2881344ADF80A308B
:1020400001A93846FEF7C2FF804631463846FEF702
:10205000BDFFB8F1010F0DD0AA7A00236B72238067
:102060006380A380E38023726272A372204606B06D
:10207000BDE8F08108B900232B7201AB3A460A2172
:1020800003A8FEF799FF6A7A0D4B53F822309DF8AA
:102090000C20394628469847B5F800C06F88AE88AE
:1020A000E9882B7AAA7A03F1010E85F808E0A4F8F2
:1020B00000C06780A680E18023726272A072D5E7BB
:1020C00038120020014B1888704700BFEC2A00200E
:1020D0000A207047024B5B6803EB0010807B70475F
:1020E000EC2A0020024B5B680001185C704700BFBF
:1020F000EC2A0020024B5B6803EB0010408870471D
:10210000EC2A0020024B5B6803EB001080887047CC
:10211000EC2A0020024B5B6803EB0010008970473B
:10212000EC2A0020024B5B6803EB001040787047FC
:10213000EC2A0020014B198058607047EC2A0020DF
:102140000048704788E2010001EB4011024B1B6818
:1021500033F91100704700BFF42A002001EB401151
:10216000024B5B6833F91100704700BFF42A00206E
:1021700001EB4011024B9B6833F91100704700BF1F
:10218000F42A002001EB4011024BDB6833F9110007
:10219000704700BFF42A0020014B43F8210070472C
:1021A000F42A0020014B03EB80007047A8E20100F5
:1021B000004870471800002000487047E4040020E1
:1021C00010B5064C04F110000DF07EF8207504F1F6
:1021D00018000DF07FF82077204610BD4C05002038
:1021E000024A4FF4F071024809F094BDA4AB01001B
:1021F0002C0500200149024809F018BEA4AB0100DB
:102200002C050020024A4021024809F083BD00BF8E
:10221000B8AB0100700500200149024809F006BE74
:10222000B8AB010070050020004870478805002009
:10223000704700BF704700BF10B5054C04F10C009B
:102240000DF042F8E36820752361204610BD00BF01
:10225000D8050020004870473000002070B546784F
:102260000C4CB500294604F114000B4A09F052FD4C
:1022700031462046094A09F04DFD2946201D084AED
:1022800009F048FD294604F10800064ABDE87040FF
:1022900009F040BD14060020A8AC0100BCAC010050
:1022A000D8AC0100F4AC010010B50A4C0A4904F1A5
:1022B000140009F0BBFD2046084909F0B7FD201DB8
:1022C000074909F0B3FD04F108000649BDE81040D4
:1022D00009F0ACBD14060020A8AC010054AC01000C
:1022E0006CAC010084AC010010B5054C04F10C008D
:1022F0000CF0EAFFE36820752361204610BD00BFA3
:1023000034060020004870474800002010B5074CF4
:10231000074A04F108000C2109F0FCFC2046BDE846
:102320001040044A062109F0F5BC00BF70060020E9
:1023300020AD010038AD010010B5064C064904F18E
:10234000080009F073FD2046BDE81040034909F07C
:102350006DBD00BF7006002020AD010038AD01004A
:1023600000487047A0050020704700BF704700BFBD
:1023700010B5064C04F10C000CF0ACFF207504F114
:1023800010000CF0ADFF204610BD00BFA8060020D5
:10239000004870476000002070B506780C4CB5000E
:1023A000294604F114000B4A09F0B4FC31462046DA
:1023B000094A09F0AFFC2946201D084A09F0AAFC89
:1023C000294604F10800064ABDE8704009F0A2BCA5
:1023D000E4060020B4AD0100C8AD0100E0AD01008D
:1023E000F8AD010010B50A4C0A4904F1140009F0D7
:1023F0001DFD2046084909F019FD201D074909F077
:1024000015FD04F108000649BDE8104009F00EBDB5
:10241000E4060020B4AD0100C8AD0100E0AD01004C
:10242000F8AD010010B5064C04F10C000CF052FFA1
:10243000207504F110000CF053FF204610BD00BFC2
:10244000040700202DE9F0410CF03AFF0446FFF7A5
:10245000B7FE0546FFF748FF0746FFF7E3FF2246B2
:1024600006462946012001F04BFE2246294602205D
:1024700001F046FEFFF7E0FE8046FFF779FF0546D4
:1024800022464146092001F03BFE224629460A2009
:1024900001F036FE22463946052001F031FE224683
:1024A0003146062001F02CFEFFF79AFEBDE8F04110
:1024B000FFF7A8BE10B5FFF7C5FF094B1B6898478B
:1024C000084B1B689847084B1B689847BDE81040AD
:1024D000064A074B127853F822305B68184700BF52
:1024E00090110020F4100020BC100020691600207C
:1024F000A8AE010070B5FFF763FE0446FFF7F4FED7
:102500000646FFF78FFF0546FFF774FEFFF784FED0
:102510002146012001F042FE2146022001F03EFE4C
:102520003146052001F03AFE2946062001F036FE2C
:10253000FFF782FE0546FFF71BFF044629460920E8
:1025400001F02CFE2146BDE870400A2001F026BEB5
:1025500070B500249CB011AE214630462C220BAD44
:10256000CDE90B44CDE90D440F94ADF8404017F090
:1025700004FD08ABCDE90233CDE90544CDE90056B1
:102580000648049309940894CDF827402B46046824
:102590002A4629460B20A0471CB070BD9C2B00206A
:1025A0000B4A0C4B127810B553F82230DB68984771
:1025B000FFF7CEFFFFF79EFF074B1B699847074BBE
:1025C0001B699847BDE81040054B1B69184700BFC1
:1025D00069160020A8AE010090110020F410002020
:1025E000BC10002070B5064607F098FD194D012873
:1025F00004462B781CD09EB99C421BD0012B1AD0CC
:10260000154E56F82330DB68984720462C7007F0AB
:102610008BFD2B7856F82330BDE870405B68184777
:10262000012E12D0032EE7D1022B03D00224E5E7BE
:10263000012B00D170BDFFF7B3FF20462C7007F0CF
:1026400073FDBDE87040FFF735BF002BF2D00024CA
:10265000D4E700BF69160020A8AE0100614A2DE949
:10266000F04F1278604B8BB053F822305F4C9B6870
:102670009847C0F3074307930990C0F3072A07F070
:1026800059FD064607F05AFDB379227883469A42EF
:1026900004D0B07905F078FCB3792370544B012451
:1026A000986804F0F7FF0025ED23DFF868815148B2
:1026B000DFF85491504F0593224621464346CDE919
:1026C0000309CDE901550094642000F09BF93B68B3
:1026D00098F800209978914213D0F321CDE9015563
:1026E0002546464A023305910392CDF81090009496
:1026F00022462146642000F085F93B689B7888F8E3
:1027000000300DF0D9F83B688DF82300DB78834268
:102710002CD1BBF1000F3ED1002D3CD1079B002BEB
:1027200043D0737E002B49D1337E002B55D1079BBC
:10273000012B01D10EF03CFE7222314B00921A683F
:102740003049314B632000F0A5F9FFF729FFFFF76F
:10275000B1FE77222D4B00921A682A492A4B63203A
:1027600000F098F901200BB0BDE8F08F01224FF482
:10277000817100232648CDE90491CDE9013303900E
:102780000DF1230364200092114600F03BF93B68F1
:10279000D8780DF07DF8002007F0D6FC337E002BB2
:1027A000CAD0002007F0C0FCC6E7337E7BB9504694
:1027B000FFF718FF01200BB0BDE8F08F337E002B30
:1027C000F5D0284607F0B0FC4FF0010AEFE7079874
:1027D00007F0AAFC4FF0010AE9E7284607F0A4FC3D
:1027E000A5E700BF69160020A8AE0100681600200A
:1027F000080A002074AE0100340A002080AE0100F7
:102800004C0700201CAE010064AE01005007002000
:102810009CAE0100840700202DE9F04792B00446E9
:10282000884607F087FC00233F4FC27DC7E900338D
:102830003B81002A56D094F82B0094F82AA094F8F3
:102840002990504594F8281038D8A0F1160EC21FD0
:10285000A0F10F065FFA8EFED2B2F6B2894521D8FA
:102860004B4612E0A3F10A04022C4ED800EB4314AD
:1028700038F91450012437F914C0AC45B8BF27F813
:1028800014500133DBB299420CD3022AEAD9022E4A
:102890002BD89C1F022C28D800EB4315022438F9B2
:1028A0001550E8E70130C0B20EF1010E01320136D9
:1028B00082455FFA8EFED2B2F6B2CFD23E2200211E
:1028C0000DF10A0017F059FB002340F20155822454
:1028D00000971A4602A91E20ADF808508DF80D4049
:1028E00007F0D4FD12B0BDE8F087BEF1020FC8D8E2
:1028F000A3F10A04022C11D99C1E022CC1D800EBB2
:10290000431438F914500324B5E79C1E022CB8D8A0
:1029100000EB431438F914500024ACE700EB4314E7
:1029200038F914500424A6E76C160020F0B5204EA8
:1029300083B0054601F1200014461F467160FDF783
:10294000A1FC1C4B1C4A9968213037604860946098
:1029500060782278E37802FB00F203F07F0303FB48
:1029600002F3164C22790B60D3B2012B01D003B0D5
:10297000F0BD7721FF221E46114F39702271237955
:10298000FF2B10D120222946684617F0C7FA009B7A
:10299000032B04EB830206DC019BD2F8052006FA28
:1029A00003F31342EBD105233B7003B0F0BD00BF2E
:1029B0003C210020580A00203C0C0020FC21002073
:1029C000080B002070B504460E461546049A1946B9
:1029D00020F8022B20341E2217F08EFB20463146B1
:1029E000DF2217F089FB45B13046FDF74BFC294645
:1029F000C0F1DF02204417F07FFB2046BDE87040A5
:102A0000FDF740BCF0B5C5B004460E46154601467C
:102A1000202204A81F4617F081FA049B032B0EDC2A
:102A200001221B48059900EB8303D3F805C002FA85
:102A300001F313EA0C0F02D00379934201D045B0A1
:102A4000F0BD4F9B4D99009300224E9B04A8FFF7C9
:102A5000B9FF4FF0000E9DF80BC04A9B4B9A63F3F1
:102A6000060C8DF80F0020464C9C62F3C71C3B46B9
:102A700004A902AA8DF808608DF809508DF80E405F
:102A80008DF80BC08DF80CE0FFF750FFD7E700BFC3
:102A9000FC210020F0B5C5B004460D46164601469F
:102AA000202204A81F4617F039FA049B032B0EDCE2
:102AB00001221548059900EB8303D3F805C002FAFB
:102AC00001F313EA0C0F02D00379934201D045B011
:102AD000F0BD4A9B3246009329463B4604A8FFF7C7
:102AE00071FF00258DF80F0004A902AA20462B468D
:102AF000ADF808508DF80B508DF80C508DF80E5035
:102B0000FFF714FFE3E700BFFC210020F0B56446A7
:102B100087B001F069FD002601F0B8FD0125042011
:102B200040F22F372369A268DB68E168CDE90156DE
:102B30000090064D06480597CDE903057220FFF782
:102B400061FF2369D86807B0F0BD00BF38B001004D
:102B5000A0AF01002DE9F04F91F81CE090F802C001
:102B60000F460EFB0CF5097D85B00191DDF838802C
:102B70004DB34446002605EB450C08EB0C1C2262C5
:102B800094F8245084F8246094F8255084F8256043
:102B900094F8265084F8266094F8275084F827602B
:102BA00094F8285084F8286094F8295084F8296013
:102BB00094F82A5084F82A6094F82B5084F82B60FB
:102BC0003034A445DBD1BEF1000F32D03D460026A3
:102BD000074603F1FF3921B3CB4600242B690622B7
:102BE00013F804A002A84FEA6A01013117F096F920
:102BF000BA780AF0010306FB0233029A03EB43039F
:102C0000920002EB0313039943441BF8012F186A47
:102C100001EB81018A4002431A622B7D0134A342F9
:102C2000DCDC2B7F0136019AB342914401DD297D22
:102C3000D1E705B0BDE8F08F2DE9F041002482B066
:102C4000089D2A622A6595F8242085F8244095F885
:102C5000252085F8254095F8262085F8264095F80A
:102C6000272085F8274095F8542085F8544095F89A
:102C7000552085F8554095F8562085F8564095F82A
:102C8000572085F8574095F8282085F8284095F872
:102C9000292085F8294095F82A2085F82A4095F8BA
:102CA0002B2085F82B4095F8582085F8584095F84A
:102CB000592085F8594095F85A2085F85A4095F8DA
:102CC0005B2085F85B400A7D12B30F465E1E3B69B0
:102CD000062213F8048068464FEA6801013117F0B4
:102CE0001DF908F00108009A4FEA48039844930040
:102CF00003EB081301992B4416F8012F186A01EB16
:102D000081018A4002431A623B7D0134A342DEDC2A
:102D100002B0BDE8F08100BF2DE9F04F97B06846E2
:102D2000D1F8013006AF1E7D1D7F796006FB05F3EB
:102D3000D1F809205C00FA62DA1DD208A0EBC200CB
:102D4000854604F10803DB08DB0006A8ADEB030DA4
:102D5000F86006A8ADEB030D06AAADEB030DFB6A08
:102D6000BC60DB68BA623B620A2322467400A0465C
:102D7000FF217B61386117F000F906AB7B62B3007D
:102D80007B637A697B681F2AD3F8053040F3198189
:102D900010464446954901FB02F102EB421200EB5A
:102DA000421202EBC23201F1404102F140422031B5
:102DB000013241F01F0103F5B46019625A629A6250
:102DC00030338342F9D18A480122049089488D2109
:102DD000039004230020A0460290019205910093E5
:102DE0007C6907F13C0311466420FC63FFF70AFE8F
:102DF000BC6800212246B86A17F0BFF82246FF21BE
:102E0000786A17F0BAF8142344463B6301F0ECFBF0
:102E100001F03CFC0421FB6A4FF0000CDB680091E0
:102E200096210591724920220491734972200391E1
:102E30000121CDE9011C0F21FFF7E4FD45B34FF05F
:102E400000093B6AD7F824A0A3F1040BBB6AA3F1E5
:102E50000208002E00F0AB80D446DE464346A04474
:102E60005EF8042F33F8020FBCF800108242C8BF8E
:102E700090B28A42B8BF91B2434518802CF8021B29
:102E8000EED109F101097B6B4D459B44A244E0D191
:102E90003B6B013B3B63B9D1A046002D35D09B462F
:102EA000BB6AD7F80C90023BFB617B6AD7F81480B1
:102EB000023B3B633B69BD61A3F1020AB6B15046D8
:102EC0000021D7F830C0FD6935F8023F3CF802EF29
:102ED00030F8022FA3EB0E039A42C8BF09F8018015
:102EE00001F10101C8BF03808E42EDD1FB690BF1F6
:102EF000010B2344FB613B6BA24423443B63BB694E
:102F0000B1445B45DAD1A046BD69A9217869FB6A65
:102F100001307861DB680591354904220491364916
:102F200004460391002001210092CDE901102022E6
:102F30000F216420FFF766FD3E2C7FF422AFAC2208
:102F40002B4B00922D4900226420FFF7A3FD0020A7
:102F5000CDE901000120AD21254B294A00900493C1
:102F6000FB6864200591039229463246FFF74AFD2B
:102F7000AF221F4B0092234900226420FFF78AFDF5
:102F80001B4B4FF0B00C049300230224CDE9013316
:102F90001D483B69324603902946CDF814C0009481
:102FA0006420FFF72FFD4437BD46BDE8F08F09F1DF
:102FB00001097B6B4D45A0449B44A2447FF449AF7B
:102FC00066E77A6944461146084800FB02F002EBC6
:102FD000421201EB421202EBC23203F5B4611862F5
:102FE0005A629A6230338B42F9D1ECE620841002A7
:102FF00038B00100F0AF0100A0AF0100FCAF01004C
:1030000010B001001CB001002CB001002DE9F04F00
:10301000D2F80180D2F805C098F81C9098F814A056
:10302000B9F1000F22D04FF0000E0139BAF1000FB4
:1030300017D00C468678D8F810200EFB06F60AEB5F
:10304000020712F801BB14F8015F0BF001033344CF
:1030500003EB43030CEB031303EB5B039742DD73BA
:10306000EFD10EF1010ECE455144DFD1BDE8F08F16
:10307000F0B5DCE9002087B064460F46FFF7C6FFD5
:10308000D4E90221002040F239360125CDE90100C2
:10309000054C06483B46CDE903040596009564209F
:1030A000FFF7B0FC07B0F0BD38B0010068AF010019
:1030B0002DE9F04F8DB082788A4602EB4202120170
:1030C00000AFADEB020D6E46F8610021684616F0C8
:1030D00054FF4FF4B4620021C84816F04EFF9AF82E
:1030E0001450BE6135B3DAF810000124054406E03F
:1030F0005368854243EA0E0EC2F804E01AD010F875
:10310000013B03F0010C4FEA4C0262441F2B04FA0E
:1031100003FE06EB0212EBDD117A203B8C4604FA2B
:1031200003F3C1F301010B4363F3010C854282F801
:1031300008C0E4D19AF81C30BB62002B00F08381F8
:10314000DAF81820002411460120FA62194412F816
:10315000013B00FA03F3914244EA0304F7D1FB690F
:103160003C6293F802C0BCF1000F00F07D810021A9
:10317000BA69C7F82CA010460D464FF0010B4FF06E
:10318000190992463B6AC3F313065FFA86F8C6F341
:10319000072E360C01EB41030AEB03135C781A7A15
:1031A0006FF3C3045C709C7A02F0030224F03F04C6
:1031B0009C7293F82E401A7224F01F045D7283F8FB
:1031C0002C5083F82D5083F82E4003F1080280F82C
:1031D0000BB080F82F909379013123F00F03334324
:1031E0008C4582F8048082F805E000F1300093718C
:1031F000D0D14FF040533A6AD7F82CA09A64BB6AFA
:10320000002B00F02A81DAF81830FB6200234FF01F
:10321000010B7B629946794BBB624FF0000CFB6A55
:1032200029F0030213F80930BC6A0BFA03F8C8F35B
:103230001308C8F30D039B00BB604FEA98337B6013
:10324000131D3A61FB60C7F81480A6464FEA4C058F
:10325000BB69654403EB051505F13008764628681F
:103260006968AA68EB68103545450EF1100E0FC667
:10327000F4D12388796A9AF80B2061F3090323803B
:10328000002A40F0BD8023687A6962F31F3323600F
:10329000FB699AF80C00DB783A6A0BFA03F3013801
:1032A00042EA03019AF81C20032800F2C880DFE8F4
:1032B00000F0825B3602206894F82E5043EA10300A
:1032C00025F01F05C0F31403013A45EA13454A45AA
:1032D000A08584F82E500FDDFA6A4A445078EAB28D
:1032E0000BFA00F00343C3F3140322F01F0242EA77
:1032F0001342A38584F82E20B9F1000F08D0FA6A92
:103300004A4412F8012C0BFA02F21343C3F31403DC
:1033100083F4FF1383F4FF5383F01F032AE0E36A6F
:10332000013A4A45C3F3140311DDFA6A4A4450785E
:1033300094F82E200BFA00F00343C3F3044022F06C
:103340001F020243A38584F82E20C3F31403B9F1AE
:10335000000F0FD0FA6A4A4412F8012C0BFA02F25D
:103360001343C3F3140305E0226843EA1233DB433B
:10337000C3F31403E2681940A07B94F82E30C2F323
:10338000130222EA0102A18520F00F0023F01F039F
:10339000C1F3044140EA12401943A281A07384F8AA
:1033A0002E103034BCF1000F15D1DAF818304FF080
:1033B000010CFB6249E794F82E20C3F31403194073
:1033C00022F01F0242EA1142A18584F82E203034F7
:1033D000BCF1000FE9D07A6A9AF81C302032C2F3AF
:1033E00009027A62BA6A09F1010960324B45BA6290
:1033F00033DDDAF81830FB620FE700BF9800046095
:10340000FB6A3A699918FA689D1811F8013B20681F
:103410000BFA03F3226843EA103363F31F328D4241
:103420002260F2D12389BA6803F003031343238196
:10343000A37A7A6823F03F031343A37228E7E36A71
:10344000C3F3140396E7FB6993F802C0BCF1000FC5
:1034500007D14FF04053C3F848C03437BD46BDE8EC
:10346000F08FBB6A3B6282E64FF040533A6A9A643F
:10347000CCE600BF2DE9F041827800AF02EB4202BA
:103480001201ADEB020D884605460021684616F094
:1034900074FD30220021614816F06FFD6FF01F01AE
:1034A0009DF8013098F80C2003F0F40343F0090371
:1034B000013A8DF800108DF801306C46032A03D8CC
:1034C000DFE802F0948002024FF0FF324FF04051EB
:1034D000002094F82E3084F82C2043F01F0384F849
:1034E0002E3084F82D20C1F830014FF0013219261A
:1034F00004F1300528462346C4F80F20C4F81320F1
:10350000C4F81720C4F81B20E277E27284F82F6019
:10351000D3F800C05E689968DA681033AB42C0F82F
:1035200000C046608160C26000F11000F0D198F8E0
:1035300014303BB3D8F81000012603EB000C06E072
:103540005368844543EA0808C2F804801AD010F88A
:10355000013B03F0010E4FEA4E0272441F2B06FAA4
:1035600003F804EB0212EBDD117A203B8E4606FADB
:1035700003F3C1F301010B4363F3010E844582F8A9
:1035800008E0E4D12646DFF894E0F446306871683C
:10359000B268F3681036AE420EF1100EACE80F00C0
:1035A000F3D1DFF880C06034654630687168B26876
:1035B000F3681036A6420CF1100C0FC5F4D1BD46CD
:1035C000BDE8F0814FF0FF324FF04051002094F8F9
:1035D0002E3084F82C2023F01F0343F00F0384F8CF
:1035E0002E3084F82D20C1F830017EE701224FF003
:1035F0004051E87894F82E308240C2F3044523F01D
:103600001F0307482B43C2F3072584F82C2084F8B6
:103610002D5084F82E30C1F8300166E7380604607A
:10362000FFFF0F0068060460F0B50D46A9B04C22FC
:103630000021044602A816F0A0FC00204FF04052E2
:103640002978ADF8040082F8A8106978BDF8042044
:10365000A87861F38A12C2F3072160F3C601ADF8BE
:1036600004208DF80510BDF8041002AB0DF12A02FC
:10367000598502339342FBD14FF04056002286F821
:10368000A7202F7DC7B14FF0010C2969013911F82E
:10369000013F28A818441C2B00F8982C02F10102C5
:1036A00008DD96F8A7001D3B0CFA03F30343DBB2D9
:1036B00086F8A7309742EAD102A915A84C2216F045
:1036C00051FC15A94C22094816F04CFC4C2215A9B6
:1036D000074816F047FC29462046FFF7E9FC20463C
:1036E0002946FFF7C7FE024829B0F0BD4C00046030
:1036F000000004602DE9F04FD0F80D40D0F80160D3
:10370000D4F800C0D6F820E09CF800309CF80120E6
:1037100096F80090D5185FFA85F808F1010B03F1CF
:10372000010A0F46591ED0F8090089B08EF829B059
:103730008EF822808EF824A08EF82510B9F1000FA3
:103740004CD001328EF8272000238EF828301A46FC
:10375000636893F8008008F03F0802F114030EEB51
:1037600043039978013268F30501112A9970F4D165
:1037700019211C4B1C4A83F82F1030339342FAD185
:1037800033796BB143685BB1164D9CF80D2031461F
:1037900000953846FFF7DEF923685A781B78D5186C
:1037A00049F6404301356D0093FBF5F540F2E91011
:1037B00001220021042608AB43F8045D0B4C059060
:1037C0000B48CDE90121CDE90304114600966420A0
:1037D000FFF718F9034809B0BDE8F08F0A3B8EF8EF
:1037E0002730B1E7980004603806046038B0010063
:1037F000B0AF01002DE9F047D0F80D80D0F80150AE
:10380000D8F800302C6A93F801C01B7895F800E0D6
:103810000CEB0302D2B202F1010A03F101090F46D7
:10382000591ED0F8096082B084F875A084F86E2023
:1038300084F8709084F87110BEF1000F3BD00CF149
:10384000010C84F873C000231A4684F87430D8F849
:1038500004C09CF8020000F03F0002F1140304EBE6
:10386000430393F84E10013260F30501112A83F8E7
:103870004E10F2D19CF80010114AC901301D08F019
:1038800049FAD8F804300F4A197806F10800C9013E
:1038900008F040FA2B7953B1736943B1D8F800208E
:1038A000094C527B294638460094FFF7C5F9064873
:1038B00002B0BDE8F0870A3B84F87330C3E700BF6D
:1038C00084AF01009CAF010038060460F0B500260B
:1038D0004FF0405301250424D0F80D20D0F80110FA
:1038E00050681268467090784FF00F0E83F82C01E4
:1038F000D0784FF4B47C83F82D01107A83F82A0134
:10390000907A83F82B01107983F82E01507983F88F
:103910002F010F78C87883F825714F7983F88E705E
:1039200083F8840083F8815083F8806083F8AE4088
:1039300083F8AF400E7993F8890086EA050767F3AC
:103940000510022783F8890093F8A10066F304109C
:1039500083F8A10083F88D4083F8B05083F8C5E068
:10396000A3F8C8C083F8CC70947B087A83F8004130
:103970008C7983F80541CC7983F80A4183F80D01ED
:10398000497A83F81011117B83F8DA10D27A83F820
:10399000A020BDE8F04000F095BB00BF4FF04053C1
:1039A00010B5D0F80D10D0F809204C68526893F883
:1039B00041116078054B02EBC01003EB01418022FE
:1039C00016F0D0FA63780133637010BD8007016090
:1039D00070B5194B84B01B78044613B106F0AAFBEE
:1039E000C37ED4F80130DB7A23B3D4F80930DE6823
:1039F00006F1800506F50866A5F18000002319464A
:103A0000DA0182584DF823200133042B1144F7D1F9
:103A100000225DF82230D401A1EB430301325B1098
:103A2000042A0351F5D10430A842E7D105F5007509
:103A3000B542E1D104B070BDA31700204FF0405350
:103A40002DE9F041012604240025D0F80D20D0F8FE
:103A5000011012684FF00F0890784FF0030E83F8B2
:103A6000E000D07883F8E100107983F8E200507923
:103A700083F8E300107A83F8E600907A83F8E70091
:103A80004F79C87883F88E7083F8840083F881605A
:103A900083F8805083F8AE4083F8AF400F7993F8F5
:103AA000890087EA060C6CF305104FF01E0C83F8B2
:103AB000890093F8A10067F3041083F8A10083F84C
:103AC0008D4083F8B06083F8C58083F887E0A3F861
:103AD000C85083F8CCC0907B83F80001887983F8C4
:103AE0000501C87983F80A01497A83F81011117B1E
:103AF00083F8DA10D27A83F8A020BDE8F04100F014
:103B0000E1BA00BF4FF040532DE9F04101260025F6
:103B1000D0F80D10D0F80100D1E90021947849784F
:103B200083F8E040D4784FF0040883F8E14014793A
:103B30004FF00F0E83F8E2405479B14083F8E34030
:103B4000147A314483F8E640947AC9B283F8E740A6
:103B50004779C47883F88E7083F8844083F8816055
:103B600083F88050077993F8894087EA060C6CF354
:103B700005144FF0030C83F8894093F8A14067F3D4
:103B8000041483F8A14083F88D8083F8B06083F833
:103B9000C5E083F887C0A3F8C85083F8CC10917BA8
:103BA00083F80011817983F80511C17983F80A112E
:103BB000417A83F81011117B83F8DA10D27A83F8F6
:103BC000A020BDE8F08100BF2DE9F04F99B0734C03
:103BD00006AF07F1240A7861714D0E4694E80F0094
:103BE0008AE80F0007F1700307F134087B6407F1DE
:103BF000100350464146CAF80830CAF80C50FCF78A
:103C00003FFB94E80F00674C88E80F0007F11003B2
:103C1000404607F14401C8E90234FCF731FB0120BA
:103C200000F06CFC3861002800F0B3800023E94606
:103C30001A46D0F801505C48297D2C7FB961FC619F
:103C400001FB04FB6978B96029792B71F96002F1F5
:103C5000140300EB43035988013241F4F861112A3F
:103C60005980F4D169460BF10703DB08A1EBC303CC
:103C70009D46D6F80D20D6F809C0136806AC5B78CF
:103C8000DCF8081020465A467B60C7F820C016F0C2
:103C900069F97B68BBF1000F09D0224604EB0B00E9
:103CA00012F8011B0431824202F8011CF8D148F0DD
:103CB00001024AF00101CDE90021012019465A46CE
:103CC000234602F009FF3B6A5A461868214616F05F
:103CD00049F940F241304FF0000B4FF0010C3B6AC4
:103CE000BA691B68F969DFF8CC8005902F48CDE9E7
:103CF00001BBCDE90308CDF800C06420FEF782FEC9
:103D0000D7F81CA0DA4518DD5846D7F818C0D7F800
:103D100020E0BCF1000F0DDD00222B7DDEF81C1031
:103D200000FB0323895C14F803B001325944624557
:103D3000E154F2D101305045EBD132462146786949
:103D4000FFF764F9D7E9062140F24B300025012640
:103D5000CDE90480164823460390CDE9015564203F
:103D60000096FEF74FFE2A46BB680F4C03F01F007B
:103D700002F1140304EB43035988013260F38A1102
:103D8000112A5980F4D13B693A7BD3F801301A717A
:103D9000CD464C37BD46BDE8F08F00BF50A10100B5
:103DA0000D2B0000713000000000046074AF0100B2
:103DB00068AF010038B001002DE9F04FADF50D7D81
:103DC00006AF78608A4600F065FA061E40F3C580AB
:103DD000002403E00134A64200F0BF802146012008
:103DE00000F066FA0028F5D007F1140E0546F446F7
:103DF000D0F8014004F12008664620686168A26896
:103E0000E368103444450CF1100C0FC6F4D10026C1
:103E100020684FF4F072CCF800008EF80460C5F80A
:103E200001E0DAF80D3001211B6807F138005B78FA
:103E30001C46FB6016F0A1F8ADF5F16D06AB184617
:103E400031464FF4F06216F098F8012C40F3898067
:103E50000124A146031FDFF82081BB60DAF805507A
:103E600005F10F0B05F2AF555846112221460BF113
:103E7000300B16F082F8AB45F6D1012240F27A33CE
:103E8000042539496420CDE902610593114607F103
:103E90001003CDF81080CDF8049000953C61FEF73A
:103EA000B1FD00F0A1FB00F0F1FB40F27E332F4AA0
:103EB0000593CDE902624FF0C04320220F21009507
:103EC000CDF81080CDF804907220FEF79BFD4FF0E6
:103ED000C043B968DFF8A4C007F13802186851F888
:103EE000045F04338542BCBF14700860634502F16F
:103EF0000102F3D14FF463731D4A0593CDE90262C9
:103F000007F13803CDF81080CDE9009620220F216B
:103F10006420FEF777FDFB680134A3429ED1524630
:103F2000786807F13801FFF771F84FF464740022E4
:103F30000120104907F13803CDE9012200900391D7
:103F4000CDF81080059420220F216420FEF75AFD41
:103F500007F50777BD46BDE8F08F0023D3F80130A1
:103F6000FFDEDFF81480DAE7C0AF0100D0AF010058
:103F700068AF0100D8AF010038B0010080070060D1
:103F800008B500F083FB022000F0B8FAD0F8093041
:103F9000986808BD08B500F079FB012000F0AEFA82
:103FA000D0F80930D86808BD30B4D0F80D20D0F86A
:103FB0000930526815789DB19C685B68803C03F1BC
:103FC0007C00E41A00EBC515A0F18003221853F819
:103FD000041F834242F8041FF9D18030A842F3D174
:103FE00030BC7047704700BF002070474FF040530F
:103FF00093F84121002082F0010283F8412193F8D7
:10400000432182F0010283F8432170472DE9F047F4
:10401000482286B0FF212A4815F0AFFF01A80BF017
:1040200053F9804602A80BF055F9074603A80BF098
:1040300057F918F0FF081DD04FF0000A4FF00109A2
:104040001F4E04AD019B082213F80A402846610068
:1040500004F0030415F062FF04EBC404049A344432
:10406000059BA15C09FA03F30AF1010A0B43C2455F
:10407000A354E7D117F0FF071FD04FF000094FF00E
:1040800001080F4E04AD039B082213F8094028468F
:10409000610004F00304043404EBC404344415F058
:1040A0003DFFDDE90423A15C013308FA03F309F1C4
:1040B00001090B43B945A354E5D106B0BDE8F0872B
:1040C0004830002008B50BF0DDFB054B1B7898420B
:1040D00004D01846BDE808400BF0B6BB08BD00BFD1
:1040E0008407002010B50BF0CDFB04460BF0BEFB9F
:1040F000844203D0BDE810400BF0A6BB10BD00BF4A
:1041000030B5013885B00C460A2810D8DFE800F039
:104110003B3E0F3B26110F0F2611060003A80BF0A4
:10412000D3F82246C1B2039801F07AFDA06305B02E
:1041300030BD03A80BF0CEF80223C5B203992A467E
:104140000093204604F1150300F092FC2246294614
:10415000039801F079FBA06305B030BD03A80BF014
:10416000B3F80223C5B203992A460093204604F10E
:10417000150300F07DFC22462946039801F022F841
:10418000A06305B030BDCB7A002BD0D010462146BD
:10419000FFF74AFA206205B030BD00BF0138092898
:1041A00008D8DFE800F0080808070505050505053B
:1041B00000238B63704700230B627047037810B5B0
:1041C000022B04460BD0042B03D10022D0F801307F
:1041D0001A6200236374A374E374237510BDD0F8CE
:1041E00009000849043007F021FED4F80900064907
:1041F000083007F01BFE00236374A374E374237577
:1042000010BD00BF50B0010070B00100002230B5F9
:1042100004460D4683B002AB43F8042D18460E4AFF
:10422000152107F077FD22780C4B294653F82230F0
:1042300020469847C4F80500A06822686568E168D0
:10424000019B98601A605D60D960226901981A61CB
:10425000227D1A7503B030BD48B00100ACB001003A
:104260000B4B1A680AB90CE01A46D2F81130002B31
:10427000FAD10023C2F8110043748374C374037528
:1042800070471860002343748374C37403757047C8
:1042900078160020054B1B6833B10020D3F811308D
:1042A0000130002BFAD1704718467047781600206D
:1042B00070B5164B88B01B687BB1002402E0D3F8C0
:1042C000113053B11A788242F9D101340029F6D065
:1042D000A142F4D1184608B070BD4FF4E17001223C
:1042E0000024042608AB43F8041D094D0590094835
:1042F000CDE90124CDE90305114600966420FEF7BF
:1043000081FB2346184608B070BD00BF7816002018
:1043100094B001009CB0010070B5094E82B03468C1
:104320004CB1084D0194D4F81140294601A807F07A
:104330007DFD002CF6D10023C6E9003302B070BD2C
:10434000781600208CB00100F8B5446805460AF0E4
:10435000B7FFACB123780B2B12D80B4E01460746A2
:1043600056F8333020469847D4F8110040B103780E
:10437000394606EBC3066860736898470120F8BDAC
:1043800000206860F8BD00BF8807002010B5044613
:104390000AF096FF636843B11C78054A014652F85B
:1043A000342018469047012010BD184610BD00BFAC
:1043B0008807002038B5446805460AF081FF4CB1F3
:1043C0002278054B014653F83230204698470023A7
:1043D0006B6038BD6C6038BD8807002070B582B056
:1043E00005460C460AF06CFF4FF0405393F841210C
:1043F000014682F0010283F8412193F8432182F0C3
:10440000010283F84321286818B90CE0D0F81100A4
:1044100058B10278A242F9D10A4A686002EBC4029C
:1044200053689847012002B070BD4FF40B76064DDB
:10443000064C00962B46002221466420FEF72AFBFC
:10444000F7E700BF8807002094B00100DCB001004E
:1044500038B5046805460AF033FF6CB16B685BB988
:104460002178064B2A6803EBC1035B6801466A604A
:1044700020469847012038BD002038BD880700201D
:1044800008B54FF0405393F8243093B172B60A4800
:10449000FFF7DEFF58B10123084A1375BFF34F8FB2
:1044A0004FF040520020064908721370937062B6B4
:1044B00008BD0BF0B7FAE9E77816002000001050AD
:1044C0009428002008B572B60948FFF7C1FF60B113
:1044D0000422084B1A75BFF34F8F4FF0405301224F
:1044E0000020054908721A709A7062B608BD00BFB4
:1044F000781600200000105094280020054B1B68FF
:1045000033B11A78824203D0D3F81130002BF8D19E
:104510001846704778160020044B11B143F820105C
:104520007047034A43F82020704700BF540700201B
:10453000E53F00000B4B70B51C680AF0C1FE7CB172
:104540000546094E23782046294656F823309847D9
:10455000D4F81140002CF5D1BDE87040FFF7C2BD82
:1045600070BD00BF781600205407002008B50E4B20
:104570005A6802B108BD01461846FFF72FFF002810
:10458000F8D00A4B1B680BB10BF04CFA0123084A18
:104590001375BFF34F8F4FF040520020054908724A
:1045A0001370937008BD00BF78160020B828002053
:1045B000000010509428002038B50023064D074C09
:1045C000074A08492B72236011600BF09DFCBDE87F
:1045D0003840FFF755BF00BF94280020A8170020DF
:1045E000A417002081440000002330B401240649B0
:1045F000064D0748074A0B7207492B60047030BC10
:104600001160FFF73DBF00BF94280020A8170020CD
:10461000A3170020A417002081440000002330B419
:1046200001240649064D0748074A0B7207492B60CB
:10463000047030BC1160FFF745BF00BF9428002014
:10464000A8170020A3170020A4170020C5440000CD
:1046500008B50BF06DFC00230249034A0B601360A0
:1046600008BD00BFA4170020A8170020024B5868FF
:10467000003018BF0120704778160020024B1868E0
:10468000B0FA80F0400970477816002008B5074955
:1046900008200BF027F8FFF74DFF0BF049FC002333
:1046A0000349044A0B60136008BD00BFED3F0000E2
:1046B000A4170020A817002008B572B60BF038FC2C
:1046C00000230849084A0B60136062B6074A516824
:1046D00031B1536006490820BDE808400BF002B82C
:1046E00008BD00BFA4170020A817002078160020DE
:1046F000ED3F000008B5044908200AF0F3FFBDE8CB
:104700000840FFF717BF00BFED3F000008B50449A0
:10471000082015F019FDBDE80840FFF70BBF00BFEA
:10472000ED3F000008222F4838B52F4C4368226027
:104730002E4ACBB1002519781570022937D0D3F84D
:10474000113093B12748FFF7FFFD002846D0012321
:10475000274A1375BFF34F8F4FF040520020254971
:104760000872137093700DE0137001250021224B25
:1047700020481F4A1B680572117503B198471948F4
:10478000FFF718FE10221D4B2260D3F800211207FC
:1047900008D5002208241A481A49C3F8804102703B
:1047A000C1F840214FF0405300225A7038BDD3F871
:1047B0000D2051680A784978013A9142BFDAFFF733
:1047C000E5FD58B101230A4A1375BFF34F8F4FF02F
:1047D000405208490D7213709370D3E70122054BC4
:1047E0001A72CFE778160020A40C0020A217002030
:1047F0000000105094280020B428002000E100E0C0
:10480000A00C002000000250B8B4850005F10A0396
:1048100023F00703002800AFADEB030D11DD6B465D
:10482000043A15440239181F31F8024F52F8043F78
:1048300003FB04F3AA424FEA132440F8043F146038
:10484000F2D1BD46B8BC70472DE9F043089D1DB3B9
:104850004FF04C0C01264FF00009079CD2B20CFB24
:10486000054CC9B29719C0B20F44A1F10A08A1F1D1
:10487000030EFFB280448644002B14BF45467546A4
:10488000A0702671E7706171A27184F81990A67604
:10489000E5714C346445EFD1BDE8F083F0B5012AF1
:1048A00083B0164605460C461F462DDC0146684679
:1048B00015F034FB36B3009B3F2B1D46A8BF3F25A8
:1048C000019A002B134405F03F05B8BF00253F2B8C
:1048D0001A46A8BF3F22002B4FF0000102F03F0311
:1048E000B8BF002304F1100207EB420C09B30A1908
:1048F000103207EB4202907965F3050090710131A7
:10490000B142F3DB03B0F0BD104607F0CDF904412E
:1049100006FB04F40F2C294606DD0122684615F03B
:10492000FDFA0126009BC7E73246684615F0F6FA05
:10493000C1E79CF8062063F305028CF80620DEE749
:10494000F0B5012A83B0154604460E461F462DDCFD
:104950000146684615F0E2FA009B2DB33F2B1C463A
:10496000A8BF3F24019A002B134404F03F04B8BFB2
:1049700000243F2B1A46A8BF3F22002B4FF0000116
:1049800002F03F03B8BF002306F1100207EB420C10
:10499000F1B18A19103207EB4202907964F30500F5
:1049A000907101318D42F3D103B0F0BD104607F094
:1049B0007BF9F30744BF06416E4321462A46684609
:1049C00054BF06F1FF36013615F0A8FA009BC5E783
:1049D0009CF8062063F305028CF80620E1E700BF8F
:1049E00070B5DCF80C3086B0644600259847FFF7B8
:1049F0004DFED4E901230121042040F253261B6916
:104A00000295CDE90001064D06480596CDE903055E
:104A10007220FDF7F7FFA368186906B070BD00BFEC
:104A200028B1010034B1010070B5644686B0DCF8ED
:104A300008309847FFF72AFE002201214FF47576CF
:104A40000425636808481B690292084A0596CDE967
:104A50000320CDE9005114227220FDF7D3FF6368D3
:104A6000186906B070BD00BF28B1010034B1010063
:104A70002DE9F04F87B006AF4578D7F82890D01DC4
:104A800020F0070009FB05F5ADEB000D0DF1180A4C
:104A90000E465046002190461C4615F06EFAA94578
:104AA00041DB4FF0000B08F1FF3922224FF0FF31BC
:104AB000204615F062FA33784FFA8BF0B8F1010F07
:104AC000E0542DDD4FF0000E6FEA060C711C11F85A
:104AD000012BA356B3F1FF3F05D1431CAB42ACBF42
:104AE00000235BB2A35498421AD092FBF5F005FB69
:104AF0001020012814BF01204FF0FF3020448256BF
:104B00009A420DD00CEB01029145A1EB060200F098
:104B10009580904501DD1846D9E7BEF1000F4CD1D4
:104B2000BBF1000F46D09323DFF828B10093002299
:104B30005B4645496420FDF7ADFFB8F1000F6CDD21
:104B4000013EB14606EB080119F8013F93FBF5F26F
:104B500005FB12324945E254F6D101219920002289
:104B60003A4BCDE904B0CDE90112039300912346FD
:104B700042466420FDF746FF0AF1FF3316F8012F85
:104B8000A256B14503F8012FF8D1012100249D253B
:104B90002F48CDF810B00390534664204246059547
:104BA000CDE901140091FDF72DFF20460437BD46E5
:104BB000BDE8F08F4FF0010B77E70121892000223B
:104BC000224BDFF890B0CDE9011205900091CDE9BC
:104BD000033B424623466420013EFDF713FF06EBEC
:104BE00008010AF1FF3316F8012FA256B14203F86B
:104BF000012FF8D1012400218D251548CDE901416F
:104C00000390CDF810B064205346424605950094B9
:104C10002146FDF7F7FE2046C8E70121992500202F
:104C20000A4ACDE901100392CDF810B0234605954C
:104C3000009142466420FDF7E5FEA6E79045BCDD05
:104C40004FF0010E184642E754B1010078B101005F
:104C500044B1010028B101002DE9F843D2F8016008
:104C6000074672780D46012A984618D9002814DDA7
:104C700000244FF04C094D1E00E07278510094FB67
:104C8000F1F301FB134315F8010F611009FB0383D6
:104C90000134FFF703FEA742EFD1BDE8F8830028F7
:104CA000FBDD00244FF04C09331993F915306110E6
:104CB000002B05DB09FB03837278285DFFF7EEFD0F
:104CC0000134A742F0D1BDE8F88300BF70B5644657
:104CD00086B0DCF800200B4BFFF7BEFFD4E90123C0
:104CE00001214FF417760020074D084C1B68CDE9D1
:104CF000010005960091CDE903457220FDF782FE83
:104D000006B070BD1408046028B1010014B10100A0
:104D10002DE9F843D2F801501E466A78012A1ED9BF
:104D200000281ADD01F1FF3821244FF04C0908EB6F
:104D3000000700E06A78510094FBF1F301FB134394
:104D400018F8010F04EBD47109FB03634910FFF756
:104D5000F7FD474504F1FF34ECD1BDE8F8830028A6
:104D6000FBDD0C464FF04C0905F1140808EB000779
:104D700018F9013FC8F13601294401EBD171002B2C
:104D80004FEA610105DB09FB03636A782078FFF7CE
:104D9000D7FDB84504F10104EAD1BDE8F88300BFAE
:104DA00030B5644687B0DCF800200B4BFFF7B0FF4E
:104DB00040F2DD350121002263680848084C1B6879
:104DC000CDE90122CDE9030405950091142272205A
:104DD000FDF718FE07B030BD9806046014B101005D
:104DE00028B10100F0B4147980F8E8405579049CAA
:104DF00080F8E950957980F8EA50D57980F8EB5041
:104E0000957A80F8EE50157B80F8EF508D790E780A
:104E100080F88E5090F8895045F0300580F8895020
:104E200090F8A1506FF3041580F8A150CD7880F868
:104E3000A950002E51D180F8986090F88B5045F021
:104E4000010580F88B500125072700264FF0060C3E
:104E500080F88D7080F8B05080F8C56080F881507F
:104E600080F8805080F8AEC080F8AF700D79002CCB
:104E700080F88450557CB8BF033480F89F50957CEF
:104E8000C4F38F04DBB280F89E5080F89C60A0F8D9
:104E9000CA4080F8CD30D37C80F80031CB7980F8DF
:104EA00005310B7A80F80A314B7A80F81031137D86
:104EB00080F8DA3090F8A330917D61F3061380F822
:104EC000A33090F8A330D17D61F3020380F8A330C2
:104ED000537DF0BC80F8A0307047012580F89850D1
:104EE00090F88B506FF3000580F88B50ABE700BF54
:104EF0002DE9F047D0F80160D0F80930747882B01D
:104F00006400D0F80D5033B10F4602461968787826
:104F1000274BFFF7A1FEB76B95F80DC08CB34FF090
:104F20004C0938464FF0000809FB04790CF01F0CBF
:104F30000CF0030E4FEA8E1E4FEA9C0C002101F18B
:104F4000100300EB430393F806A0DA790AF03F0A56
:104F500022F0070201314AEA0E0A42EA0C02112944
:104F600083F806A0DA71EAD190F84A3080F84880D8
:104F700023F01F0380F8498080F84A304C30814587
:104F8000DCD133782A78A9786878CDE90074FFF706
:104F90005BFC40F61400234600902A4631464FF051
:104FA0004050FFF71FFF02B0BDE8F047FFF79AB887
:104FB0001408046049F64043014411440331490098
:104FC00093FBF1F140F2A51070B5012200260425F3
:104FD00088B008AB43F8041D064C05900648CDE99F
:104FE0000126CDE90304114600956420FDF70AFD72
:104FF00008B070BD28B1010004B101002DE9F04FE7
:10500000D0F80130D0F80D605C785A798BB065002B
:1050100096F80380002A46D0D0F809209269002A29
:1050200041D0197D96F810B0DB68F1B14FF04C0E0D
:105030009446614A0CEB010A0EFB052E03F1FF3981
:1050400019F8013F5B0865B110335B4A580011182D
:10505000CB799CF800704C3267F3C7037245CB7173
:10506000F5D10CF1010CD445EAD1002D00F09E8061
:105070004C2251490B4602FB051283F825B04C33F4
:105080009342FAD101AF38462422002114F075FF73
:10509000B8F1020F21D0B8F1040F45D0B8F1010FDB
:1050A00052D000212AE001AF38462422002114F01A
:1050B00064FFB8F1020F10D0B8F1040F34D0B8F18A
:1050C000010F41D0002DECD170783278B178FFF724
:1050D00071FF39480BB0BDE8F08F002DF4D03B468E
:1050E000552105EBC500384403F1090203F8011B03
:1050F0009A42FBD19842F7D19DF804104FF0000C72
:105100002D4C3846002301E010F8011FE21801334E
:10511000092B1172F8D10CF1010C654504F14C0416
:10512000D2DD17F8091FECE7002DCDD03B46AA21B0
:1051300005EBC500384403F1090203F8011B9A424C
:10514000FBD18342F7D1D7E7002DBDD0B9464FF050
:10515000000EDFF868804946DFF864C0002311E0E4
:10516000012C05D1032B03F0010201DC724506D0AE
:1051700003EBC30208781CF8022002430A700133D3
:10518000082B06D0022CEBD19E45F1D10133082B20
:10519000F8D10CF1010CE04501F10101DED10EF175
:1051A000010E754509F10909D5D1A5E72946242243
:1051B00001A814F0E2FE87E71408046051300020D3
:1051C000483000202DE9F04F83B04C230C4692F874
:1051D000018000AF4FEA480603FB06F3ADEB030D79
:1051E0000021914605461A4668467B609A4614F0AF
:1051F000C4FE69465FFA84FC002E53D06B461A2425
:105200000DEB0A005A781C7002F0EC0242F0020228
:105210005A704C339842F5D1BCF1000F28D00020D1
:105220004FF04C0B4FF0010E013D05E0536901308A
:105230002343604553611ADA15F8013F09EB030275
:1052400092F915201F2B0EFA03F40BFB0212EDDD71
:10525000147E203BA2460EFA03F3C4F301041C4360
:10526000013064F3010A604582F818A0E4DB86B1DE
:1052700000234C255524B8F1020F07D105FB03127A
:10528000D07C547420F001009474D07401339E4299
:10529000F1DC7A68054814F065FE04480C37BD4619
:1052A000BDE8F08FBCF1000FF3D0B8E7140804603C
:1052B000F0B5D0F80130D0F809701E7D87B0FD69D7
:1052C000BB6806B300224FF4807C14E0786835F8A0
:1052D000124050F822002402012838BF0120B4FBFC
:1052E000F0F0B0F5DC7F28BF4FF4DC7023F812003B
:1052F0000132B24207D028880028E7D123F812C033
:105300000132B242F7D140F20726002002254A7846
:10531000064C0749CDE90100CDE903140596009537
:1053200001216420FDF76EFB07B0F0BD28B101003C
:10533000E8B001002DE9F04F97B0814606AFDFF8E5
:10534000D8C16E4E07F11C0807F12C0407F10C05BB
:10535000F960BA6196E80F0088E80F00C8E9025CBE
:105360004046214607F16803FB63FAF789FF96E898
:105370000F00634E84E80F00C4E90256204607F18F
:105380003C01FAF77DFFFB6899F80120D3F8016032
:10539000D3F80D507078D3F809A08001C7E9042A2A
:1053A00044F0010406F080FCE98948F00105DAF8D0
:1053B00000303A69CDE9004501F04AFCDAE9000124
:1053C0003D69EB46EA1DAB0022F007020A33ADEB64
:1053D000020D23F007037A690DF11808002DADEBDB
:1053E000030D7960F368146906AED7F80CA014DDDC
:1053F000002205F1FF3C9C44013B13F8011F18B14A
:1054000010F801E008F802E01CB154F8211046F849
:105410002210634502F10102EFD1F0B140F22122E6
:1054200005920022CDE901220122364B114600925D
:10543000354A6420CDE9033243462A46FDF7E2FAB5
:10544000DAF80130DAF80D10DA789AF80030013223
:10545000092B497B1ED0052B3ED094B1002404209B
:1054600001214FF4107C0294CDE90001264C27481D
:105470003346CDE903042A46CDF814C06420FDF775
:10548000C1FA4946F868DD46FFF712FF4437BD46CA
:10549000BDE8F08F7B6840F64A30CDE903630091A8
:1054A000CDE901584FF4F0734FF4487101F098FCC6
:1054B0004FF40C7C0420164A134900230491012167
:1054C000CDE901137B6800900392CDF814C02A4601
:1054D0006420FDF797FAC0E77B6840F64A30CDE9D3
:1054E00003630091CDE9015882234FF4487101F024
:1054F00077FC4FF40F7C0420064ADDE760A1010031
:10550000CD4C00008CB1010028B10100A0B1010018
:1055100094B10100C0BB0100E1490000F8B59B0057
:1055200003F10A0424F0070400AF002AADEB040DD8
:10553000EC460CDDBC69ACF10405013C224414F8D6
:10554000016F51F82660944245F8046FF7D11A466E
:10555000614614F007FDBD46F8BD00BF10B5D0F898
:105560000140D0F809204B781169227DE46882B0AF
:1055700008460094FFF7D2FF02B010BD70B5D0F816
:105580000150D0F80940EE6882B04B782A7DD4E90A
:1055900003100096FFF7C2FF287D2269A16802B0C0
:1055A000BDE87040FFF730B9D0F809304A78186983
:1055B0009200D96814F0D6BC2DE9F047D0F801600C
:1055C000D0F80930747882B06400D0F80D5033B14F
:1055D0000F46024619683878274BFFF799FBB76BDF
:1055E00095F80DC08CB34FF04C0938464FF00008C9
:1055F00009FB04790CF01F0C0CF0030E4FEA8E1E11
:105600004FEA9C0C002101F1100300EB430393F8D7
:1056100006A0DA790AF03F0A22F0070201314AEACD
:105620000E0A42EA0C02112983F806A0DA71EAD1C7
:1056300090F84A3080F8488023F01F0380F84980B2
:1056400080F84A304C308145DCD133782A78A9780B
:105650006878CDE90074FFF7F7F84FF4D36023467C
:1056600000902A4631464FF04050FFF7BBFB02B096
:10567000BDE8F047FEF736BD980604602DE9F04F0F
:10568000D0F80130D0F80D605C785A798BB06500A5
:1056900096F80380002A44D0D0F8092090690028A9
:1056A0003FD01A7DD96896F810E0E2B14FF04C0A6D
:1056B000DFF8889101EB020C013811F8013B10F87A
:1056C000017FC3F1210393FBF5F205FB12320AFBC4
:1056D000029223F0010320331344DA79614567F322
:1056E000C702DA71E9D1002D00F0A1804C225349A4
:1056F0000B4602FB051283F825E04C339342FAD1A6
:1057000001AF38462422002114F037FCB8F1020F13
:1057100021D0B8F1040F45D0B8F1010F52D00021CB
:105720002AE001AF38462422002114F026FCB8F10B
:10573000020F10D0B8F1040F34D0B8F1010F41D0EE
:10574000002DECD170783278B178FFF733FC3B480C
:105750000BB0BDE8F08F002DF4D03B46552105EB92
:10576000C500384403F1090203F8011B9A42FBD13A
:105770009842F7D19DF804104FF0000C2F4C38469A
:10578000002301E010F8011FE2180133092B117208
:10579000F8D10CF1010C654504F14C04D2DD17F889
:1057A000091FECE7002DCDD03B46AA2105EBC50033
:1057B000384403F1090203F8011B9342FBD18342F1
:1057C000F7D1D7E7002DBDD0B9464FF0040CDFF874
:1057D000748005F1040A49461948ACF1040E00230F
:1057E00012E0012C05D1032B03F0010201DD9645E7
:1057F00007D003EBC30291F800B0825C42EA0B02CF
:105800000A700133082B06D0022CEAD19C45F0D156
:105810000133082BF8D10130804501F10101DED1BF
:105820000CF1010CE24509F10909D4D1A2E729469E
:10583000242201A814F0A1FB84E700BF98060460AD
:1058400048300020513000202DE9F04F83B04C2328
:10585000567800AF750003FB05F3ADEB030D9046E2
:10586000834689461A46684600217B609A466C4604
:1058700014F083FB002D5BD06B4600200DEB0A017A
:105880005A78187002F0EC0242F012025A704C334F
:105890009942F5D1B9F1000F2EDD00214FF04C0AED
:1058A0004FF0010E0BF1FF3C07E05369013143EA71
:1058B0000B0B8945C2F814B01DDD1CF8013F08EB45
:1058C0000302C3F1210092F915201F280EFA00FBF4
:1058D0000AFB0242E9DD107EC3F1010383460EFAA2
:1058E00003F3C0F301001843013160F3010B894554
:1058F00082F818B0E1DC8DB100234FF04C0C6FF052
:105900005500022E07D10CFB0342D17C507421F0CC
:1059100001019074D17401339D42F2DC7A68214612
:10592000054814F01FFB04480C37BD46BDE8F08F56
:10593000B9F1000FF2DDB0E79806046070B5D0F859
:10594000092086B0D4699368218851B356689D1E9A
:10595000301F383601E034F8021F50F8042F0902D6
:10596000012A38BF0122B1FBF2F2B2F5DC7F28BF79
:105970004FF4DC72864225F8022FECD140F2C2359A
:10598000002202240C480D49CDE90122CDE9031083
:1059900005950094142201216420FDF733F806B028
:1059A00070BD4FF480709A1E03F11C0122F8020FA3
:1059B0008A42FBD1E2E700BF28B10100E8B0010054
:1059C0002DE9F04F95B06F4E06AF07F11405DFF8E3
:1059D000D0C1B9603A6196E80F0085E80F0007F181
:1059E000600307F124047B6307F10803C5F80CC0CA
:1059F00028462146AB60FAF743FC96E80F00624E5A
:105A000084E80F0007F10803C4E90236204607F1D5
:105A10003401FAF735FCBB6844F00104D3F80160A7
:105A2000D3F809907078C7F80C90D3F80D8045F042
:105A30000105800106F038F9B8F80E10D9F80030E9
:105A40001422CDE9004501F003F9357DEA46EA1D4F
:105A5000AB0002F4FC720A33ADEB020D03F4FF63FA
:105A6000F9680DF11808ADEB030DF268D9E90003F0
:105A700006AE7B600C69D7F8089085B10023013A27
:105A800012F8011F18B110F801C008F803C01CB1CA
:105A900054F8211046F8231001339D42F0D100B391
:105AA00040F28E32059200224FF0010B374BCDE9C8
:105AB0000122374A5946CDE90332CDF800B04346BA
:105AC0002A466420FCF79EFFD9F80130D9F80D1062
:105AD000DA7899F800305A440A2B497B1DD0062BFE
