:10000000011021003100000020300000FF0000003E
:10001000021711E49002AAF0A3F02202288943F803
:100020000875CD4053CC7F43CC4043CC2043CC100B
:1000300043CC0453CCFD43CB0243CB0153CBBFD2C3
:10004000EB43F50343900343ED0322022682781429
:10005000E2FE08E2FFD394F8EE942A5009C3EF942D
:1000600028EE9423500312292622FF021E75BB019D
:100070000689828A83E0225002E722BBFE02E32245
:1000800089828A83E49322BB010989828A83F8E00A
:1000900028F022500327F722BBFE05F8E328F322BD
:1000A0008A838982F8E4932822BB010689828A83A5
:1000B000F0225002F722BBFE01F322EF8DF0A4A83C
:1000C000F0CF8CF0A428CE8DF0A42EFE22C5F0F83F
:1000D000A3E028F0C5F0F8E582158270021583E0F0
:1000E00038F022BB0110E58229F582E5833AF583D9
:1000F000E0F5F0A3E0225009E92582F886F008E651
:1001000022BBFE0AE92582F8E2F5F008E222E58347
:100110002AF583E993F5F0A3E99322F8BB0111E5F1
:100120008229F582E5833AF583E8F0E5F0A3F02231
:100130005009E92582C8F608A6F022BBFE09E92588
:1001400082C8F2E5F008F222EF2BFFEE3AFEED391D
:10015000FDEC38FC22C3EF9BFFEE9AFEED99FDEC1F
:1001600098FC22E88FF0A4CC8BF0A42CFCE98EF054
:10017000A42CFC8AF0EDA42CFCEA8EF0A4CDA8F00F
:100180008BF0A42DCC3825F0FDE98FF0A42CCD35D3
:10019000F0FCEB8EF0A4FEA9F0EB8FF0A4CFC5F03D
:1001A0002ECD39FEE43CFCEAA42DCE35F0FDE43C36
:1001B000FC2275F008758200EF2FFFEE33FECD3381
:1001C000CDCC33CCC58233C5829BED9AEC99E582C8
:1001D00098400CF582EE9BFEED9AFDEC99FC0FD554
:1001E000F0D6E4CEFBE4CDFAE4CCF9A88222B80044
:1001F000C1B90059BA002DEC8BF084CFCECDFCE50F
:10020000F0CBF97818EF2FFFEE33FEED33FDEC3332
:10021000FCEB33FB10D703994004EB99FB0FD8E5B7
:10022000E4F9FA227818EF2FFFEE33FEED33FDEC00
:1002300033FCC933C910D7059BE99A4007EC9BFCF6
:10024000E99AF90FD8E0E4C9FAE4CCFB2275F01082
:10025000EF2FFFEE33FEED33FDCC33CCC833C810A7
:10026000D7079BEC9AE899400AED9BFDEC9AFCE8D5
:1002700099F80FD5F0DAE4CDFBE4CCFAE4C8F92222
:10028000EB9FF5F0EA9E42F0E99D42F0EC6480C8F5
:1002900064809845F022EB9FF5F0EA9E42F0E99DDC
:1002A00042F0E89C45F022E8600FECC313FCED132C
:1002B000FDEE13FEEF13FFD8F122E8600FEFC3331A
:1002C000FFEE33FEED33FDEC33FCD8F122BB010D24
:1002D000E58229F582E5833AF58302032B5007E98D
:1002E0002582F802044DBBFE07E92582F802033798
:1002F000E58229F582E5833AF583020459BB0107BB
:1003000089828A830203B15005E9F8020486BBFEA4
:1003100005E9F80203BD22BB010DE58229F582E55E
:10032000833AF5830203B15007E92582F802048677
:10033000BBFE07E92582F80203BD22E0FCA3E0FD35
:10034000A3E0FEA3E0FF22E2FC08E2FD08E2FE08D3
:10035000E2FF22E0F8A3E0F9A3E0FAA3E0FB22E247
:10036000FB08E2F908E2FA08E2CBF822BB010789B0
:10037000828A830203435005E9F8020469BBFE0543
:10038000E9F802034F89828A830204767401FF33FD
:1003900095E0FEFDFCA3A3A3E0CF2FF0E58215823C
:1003A00070021583E0CE3EF0E5821582700215835F
:1003B000E0CD3DF0E582158270021583E0CC3CF083
:1003C00022ECF0A3EDF0A3EEF0A3EFF022ECF208A4
:1003D000EDF208EEF208EFF222A8828583F0D083D6
:1003E000D0821203E01203E01203E01203E0E47390
:1003F000E493A3C583C5F0C583C8C582C8F0A3C56F
:1004000083C5F0C583C8C582C822D083D082E49357
:10041000F208740193F208740293F208740393F2E1
:10042000740473A42582F582E5F03583F58322FAFE
:10043000E6FB0808E6F925F0F618E6CA3AF622E0E7
:10044000FBA3E0FAA3E0F922EBF0A3EAF0A3E9F0C2
:1004500022E493FB740193FA740293F922E6FC08F8
:10046000E6FD08E6FE08E6FF22E493FC740193FD36
:10047000740293FE740393FF22E6FB08E6F908E694
:10048000FA08E6CBF822E493F8740193F974029326
:10049000FA740393FB22ECF608EDF608EEF608EF8B
:1004A000F622900278EFF01211671211EA9000BE66
:1004B00012106CFD122F5AD3EF94C8EE940040082E
:1004C0009002797401F08014D3EF9464EE9400905C
:1004D000027940057402F080037403F0900278E022
:1004E00075F004A424CEF9740035F0FA7B011210E3
:1004F00045900279E090028AF012278F900278E00E
:10050000121167EEF0A3EFF0ED75F004A4243FF9AB
:10051000740135F0FA7B0190027812104590028A3E
:100520007406F012278F900278E090012F12116B61
:10053000EEF0A3EFF090027B1203C900000000E48C
:10054000900279F090027B12032BC004C005C00614
:10055000C007900278E0FD75F0149000DE120413DD
:10056000C083C082900279E0D082D08312116B12D6
:1005700011EA9000C612106CFD122F5AAB07AA06A2
:10058000E4F9F8D007D006D005D004120138900263
:100590007B1203B1900279E004F0E0C3940A40A416
:1005A00090027B12032B900278E09001611211E11E
:1005B00090023AE07002A3E0704190012EE075F0E5
:1005C0000A84E5F0F0E4FF75F002EF9000C6121027
:1005D0006CFD75F014EF9000DE120413C083C0822E
:1005E00090012EE0D082D08312116BECF0A3EDF0DD
:1005F0000FEFB404D290012EE004F0301F03020686
:10060000D33007030206D3900234E07002A3E06007
:10061000030206D3900229E07002A3E06003020601
:10062000D37816E2FE08E2FFC39494EE94115018BA
:10063000902FF6740193249CFDE49334FFFCD3EFD8
:100640009DEE9C40030206D3900278E064036003B1
:100650000206D390027F1203C9FFFFFFFFE490025E
:100660007AF0900279F0900279E0FFC39404502D63
:1006700075F004EF9001611210D990027F120343CC
:10068000D3120286400F900279E0A3F01210D390AB
:10069000027F1203B1900279E004F080C99001B6A4
:1006A000E01210D3E47B1E1211BE503790027AE0A4
:1006B0009001B6F0A3E09001371210499001B212F8
:1006C00010F4C006C0079001B6E075F00290013743
:1006D00012041312114AD007D0061201459001B23C
:1006E0001203B19001B212032B9001B6E09000BE4C
:1006F0001210692FFFEC3E90015FF0A3EFF0900124
:10070000B6E0A3F0900278E0FF75F00290012F129E
:10071000106CFDEF9001371211F4ECF0A3EDF07ABC
:100720000179A11210DF7418F090015F1211907A14
:10073000017971122A767B017A0179717D18122074
:10074000B1AF41AE40AD3FAC3E9001A20203B1E477
:10075000900290F0EF70030208E5122E509001AE67
:100760001203C900000000E4900291F0900296127A
:1007700003C900000000900291E0FF1229FE121848
:10078000DD9002921203B1E490028FF09002921277
:10079000032B900291E075F00C900079120413C0C5
:1007A00083C08290028FE0D082D08375F00412045F
:1007B000131203B11218EFE0B403D1785C900292E7
:1007C0001218CC9002921203B1900291E0FF9000B7
:1007D000BE1218379000C612183690012F12183624
:1007E00075F002EF90013712183A75F004EF90009F
:1007F000CE1204131203C9009C4000900291E0FB4A
:1008000075F00490013F1204131203C9009C4000CC
:1008100012187875F004EB90014F1204131203B113
:10082000E490028FF090028FE0FFC3940A5015907D
:100830000291E075F0149000DE12041312183612C3
:1008400018EF80E1900296120343121878120138D3
:100850009002961203B1900291E004F0C394045008
:100860000302076690015F12183D900290E075F058
:100870000290017112183A9001AE12034390015F89
:10088000E0FEA3E0FFE4FCFD1201389001AE12038C
:10089000B1900290E004F0C394185003020757127D
:1008A00018F99001A21218F69001A61218F678060F
:1008B0001202AA9001AA1203B1E49001B6F0A3F0CB
:1008C000A3F09001B21203C900000000E490028F6F
:1008D000F090028FE0FFC39405500F75F002EF9087
:1008E00001BB12183A1218EF80E79001C612183DAA
:1008F000E49002C7F09001A212187B90006A1203E4
:10090000B19000701203C900000000E4900076F07E
:10091000A3F078147427F2087410F278127427F296
:10092000087410F2E47816F208F290020BF0A3F0CB
:100930009001B912183DE49001C8F0A3F0A3121879
:100940003DA31203C90009C4009001D012183DA3B1
:100950001203C90009C4009001D6740AF09001E6A0
:1009600012183D9002071203C9000000009001E434
:1009700012183D9001E81203C900000000E4900243
:100980008FF090028FE0FB75F0049001EC120413DD
:100990001203C90000000075F002EB9001D7121895
:1009A0003A1218EFE0B406DAE490023CF0A3F0A3A8
:1009B000F0A3F0900256F0A3F0A3F0A3F09002058C
:1009C000F0A3F02290020DE0900212F01223655085
:1009D000051223734007E490020DF080081229BE2F
:1009E00090020DEFF01223A94003020BE090020DDC
:1009F000E0FF122AAFEF700D122365500812237327
:100A00005003020BE090020EE0705890025FF090ED
:100A1000025BF0A3F0900063F0A3F0900256F0A305
:100A2000F0C21EC2121223CD12003E7F01122CBF53
:100A3000D390021EE0940090021DE09400401E300E
:100A4000140DEF7803CEC313CE13D8F9FF800EEE4A
:100A5000C4F854F0C868FEEFC4540F48FF1215E5FF
:100A6000020B57900063E07002A3E07013900063E4
:100A70001223837F17122CBF900256EEF0A3EFF0E3
:100A8000900256E07004A3E064017030900063E0CF
:100A9000FEA3E0FF2496FDE43EFC7808E2FA08E2BB
:100AA000FBD39DEA9C4004D21E8011EF246AFFEE26
:100AB00034FFFEC3EB9FEA9E5002D212301E3F125B
:100AC0002355D39DEE9C5003020B57120BE14003BC
:100AD000020B577F14122CBFEF7802CEC313CE1334
:100AE000D8F91223B77F15122CBF7C007D031200AA
:100AF000AB90024EEEF0A3EFF0C21E020B57301285
:100B000024122355D39DEE9C405D120BE150587F7B
:100B100014122CBFEF7802CEC313CE13D8F91223D0
:100B2000B7C212804230163F122355D39DEE9C402F
:100B300036122F5A1223C1502E12235C7816E2FC73
:100B400008E2FD122F5AAA06AB0712235C7C007D37
:100B5000031200ABEF7802CEC313CE13D8F9C39BB8
:100B6000EE9A500312292690024CE07004A3E06430
:100B700001700312292690020EE0FFA3E06F603E91
:100B80001229727F19122CBF90025DEEF0A3EFF0D4
:100B9000900210E030E421D3122373500512236633
:100BA0004009E4900223F0A3F0800D7F07122CBFD0
:100BB000900223EEF0A3EFF090020EE0A3F090027B
:100BC0000EE0602C90025DE07004A3E064017020F0
:100BD0007816E2FE08E290025B1223BAC394DCEEC0
:100BE0009405500790025F7401F022E490025FF0D8
:100BF00022122F5AAC06AD0790020BE0C313FEA3DE
:100C0000E013C39DEE9C2290026FEEF0A3EFF0A3E1
:100C1000ECF0ED1210FA4012900271E0FFA3E090A8
:100C20000275CFF0A3EFF0020DD590005CE09002CA
:100C300073120DDE9002791210AB120DDE90027766
:100C4000EEF0A3EFF09001E3E09002731210651252
:100C50000E1D90027D1210AB121065120E1D900237
:100C60007BEEF0A3EFF0900204E09002731210828A
:100C70009002871203B11210B012108290028312F8
:100C800003B190027112104FC006C0079001E41228
:100C9000114AD007D00612014590027F1203B120FD
:100CA000002CD37817E2949418E29411502090020B
:100CB0000EE0601A900253E09400900252E094001B
:100CC000500C30020990025FE07003020DAC9002FC
:100CD00034E07002A3E06003020DAC900229E070E2
:100CE00002A3E06003020DACD390024FE0940090A9
:100CF000024EE094004002800330000890024274EB
:100D000008F080243016099002427402F0E4801842
:100D1000900205E0900242B4010A7403F09002745C
:100D200014F080087401F0E4900274F075F0AA12D7
:100D300010C04003020D7F900242E0FD75F0961254
:100D400010C45006ED1211554069900274E0240859
:100D5000FFE433FEC390027AE09F900279E09E4068
:100D6000141210EB9001E81203B17F0E122CBF9009
:100D70000236020D9CD3900237E09400900236E0D8
:100D800094004003020DA375F0961210C0400B12A0
:100D900011FA900283120DFB8012900242E01211B0
:100DA0005540191211FA900287120DFBEEF0A3EFD5
:100DB000F080091210EB9001E81203B19002711259
:100DC000104F9001E81203431201451225AB900227
:100DD00075EEF0A3EFF0A3E0FEA3E0FFA3E0FCA319
:100DE000E0FD121F3C900275E0FEA3E0FF22F0251B
:100DF000E02450F582E43400F583E0FCA3E0FD90AC
:100E0000026FE0FEA3E0FF122F5A221203431201E9
:100E1000459001E81203B17F0D122CBF900234EE11
:100E2000F0A3EFF07F18122CBF90025822FD900221
:100E300071E0FEA3E0FF122F5A22900213E475F036
:100E4000011200BDD3900218E09400900217E094C4
:100E5000004003122E2CD390021AE0940090021945
:100E6000E094004003122E2CD3900253E0940090A3
:100E70000252E094004003122E2CD390021CE09406
:100E80000090021BE094004003122E2CD39002220B
:100E9000E09400900221E09400400F122E2C90026A
:100EA00021E07002A3E07002D210D3900220E094FF
:100EB0000090021FE094004003122E2CD390021EDB
:100EC000E0940090021DE094004003122E2C90024A
:100ED0000DE030E011E4900223F0A3F0A3F0A3F0C2
:100EE000A3F0A3F08042D3900224E0940090022368
:100EF000E09400401A122E2C900223E07002A3E02E
:100F0000700D7F0B122CBF900227EEF0A3EFF0D3F1
:100F1000900228E09400900227E09400400A90029A
:100F200025E475F0011200BDD390022CE0940090EE
:100F3000022BE094004003122E2CD3900235E09453
:100F400000900234E094004003122E2CD39002371C
:100F5000E09400900236E094004003122E2CD390CF
:100F60000239E09400900238E094004003122E2CE5
:100F7000D390023BE0940090023AE09400400512C6
:100F80002E2C800D7F10122CBF90023AEEF0A3EFB2
:100F9000F0D390023DE0940090023CE094004003C6
:100FA000122E2CD390023FE0940090023EE0940079
:100FB0004003122E2CD3900241E09400900240E0B6
:100FC00094004003122E2CD390024FE09400900224
:100FD0004EE094004003122E2CD390024DE094007A
:100FE00090024CE094004003122E2CD3900251E06A
:100FF0009400900250E094004003122E2CD39002F3
:1010000057E09400900256E094004003122E2CD337
:10101000900259E09400900258E094004003122E90
:101020002CD390022AE09400900229E0940040031F
:10103000122E2CD390025EE0940090025DE09400AA
:101040004003122E2C2274FF900271FEFDFC12034D
:1010500043D3020270E09000BE75F002120413E068
:10106000FEA3E0FFE4FCFD22E47FE87E03FDFC122A
:101070000343020153F09001D775F002120413E00C
:10108000FCA3E02290005CE0245DF582E43400F5EE
:101090008322F075F0049001EC12041312034390C4
:1010A00001E812032B02014590026EE075F00CA4DA
:1010B0002479F9740035F0FA7B0122EEF0A3EFF009
:1010C000900273E02403F0E075F00684AFF0EF22A5
:1010D000900242E0A4FFC390027CE09F90027BE07C
:1010E00095F02290016175F00412041302032B7B2A
:1010F00001900286120438900289229001E81203BE
:101100002B90027F120343020138A3F0D390021AFE
:10111000E09400900219E09400229002921203B130
:1011200090028A12034390029212032B0201DE9076
:10113000028612042F02005EFFE4FCFDFE12034F44
:10114000120153780702029724FFFFEE34FFFE33AB
:1011500095E0FDFC12035C020153E0FEA3E0FBAA54
:1011600006E4F9F82275F0C8A4FFC390027EE09F60
:1011700090027DE095F022FD9000C675F002020419
:101180001312042F740102007775F004A4F5828510
:10119000F0832290027812043890027B7403F022CC
:1011A000E0FFA3E090028ACFF0A3EFF022120297B3
:1011B0008F278E268D258C24221202978F278E262C
:1011C0008D258C2422785CE6FFE4FCFDFE22FAF9F2
:1011D000F8C3020286E0FF74017E00A8070822120D
:1011E00003B190028E02032B12033790027C02039C
:1011F000B175F0041204130203B1E0FEA3E0FF7521
:10120000F002ED2275F0020204139001E802032BB4
:101210007B017A0179CCE4FCFD90027D7405F0122B
:10122000273A9001CAEEF0EF1210FA400280339094
:1012300001B912104FC006C0079001CA12114AD05E
:1012400007D0061201459002711203B1E47FFA1231
:10125000103840069002750212AFE47FB4121038C5
:1012600040099002757405F00212B2E47F64121016
:10127000384002802274FF7FF1FEFDFC9002711263
:101280000343C31202704008900275740AF0803262
:101290007F9C12103640089002757408F080237FFE
:1012A0004C12103640089002757406F0801474FFDA
:1012B0007F0612103890027540057404F0800374A4
:1012C00001F0900275E09001D6F09001B912104F34
:1012D000900275E090027DF07B017A0179D21227AD
:1012E0003A90026FEEF0A3EFF0900238E07002A3A4
:1012F000E060030213677F0F122CBFEEC313FEEFF3
:1013000013FF900238EEF0A3EFF07B017A00795CD6
:101310001210E17406F07808E2FF08E2A3CFF0A310
:10132000EFF07A007950122A767B017A0179E31284
:1013300010E17406F090026F1211907A0179D712C1
:101340002A767B017A02790490027912043890029D
:101350007C7406F01211FA90027D1203B17A0179C1
:10136000EC122B1F7816E2FF08E290020BCFF0A3DD
:10137000EFF0121074E4F090026FE0FEA3E0FF22A1
:10138000E490026FF07B017A00793D1211837800BE
:101390001211D87A007931122AE87B017A0079316A
:1013A0001214917B321211BE500690026F7401F03C
:1013B0009002C7E090026EF0E4900270F012109874
:1013C000C002C0017A0079A9121183780A1211D8DB
:1013D000D001D002122AE81210981214917BF47AEC
:1013E000011211BF50069002707401F03000459058
:1013F000026FE07004A3E0603BD21A7B017A0079AF
:101400003112145F785B1211B790027112105F787D
:101410000712029778041203BD12109812145F127B
:1014200011B590027112105F7807120297780E12B0
:1014300003BD8038C21A785BE67800121128780460
:101440001203BD7804120337EC4D4E4F70037F0238
:1014500022785CE6780A121128780E1203BD780E05
:10146000120337EC4D4E4F70037F02227F04227D22
:1014700003121C00C3E5419539FFE5409538FEE5B0
:101480003F9537FDE53E9536FCC3EF953DFFEE9564
:101490003CFEED953BFDEC953AFC9002711203B1D8
:1014A000227D03121C00C3E539953DFFE538953CCC
:1014B000FEE537953BFDE536953AFCE4229002784F
:1014C0001203B11210FC405B90027812032B9000C3
:1014D0003E1203B1E47F50FEFDFC90003E12105F0F
:1014E000780A1202979000421203B1E4900281F050
:1014F000900281E0FFC39404502975F00CEF900036
:1015000081120413120343C0001211B5D00012114E
:1015100030900281E09000AA1211E1900281E00473
:10152000F080CD900280E09000AA1210D6E47B0AF1
:10153000FAF9F8120153780A1202979000BA1203CE
:10154000B190004212034390003E121092C004C0BA
:1015500005C006C0079000421203439002781210A3
:101560009290028A1203B190028E1203C900010008
:1015700000D007D006D005D0041221669000461294
:1015800003B19000BA12034390027C121092C0047F
:10159000C005C006C00790028A1203C900010000FE
:1015A00090004612032B90028E1203B1D007D00692
:1015B000D005D0041221669002821203B19000BAC5
:1015C00012032BAB07AA0690028212032BEF2BFB10
:1015D000EE3AFA900280E0F975F00490014F121093
:1015E000D9C3EB9FFFEA9EFEE99000BE1211F4EE14
:1015F000F0A3EFF02290026EEEF0A3EFF0E4A3F080
:10160000D3900224E09400900223E094004006125C
:1016100023800216DC1223655005122373402F909D
:1016200001C8E0FEA3E0FF9001B9E0FCA3E0FDD318
:101630009FEC9E40089001C8ECF0A3EDF09001C82B
:10164000E0FFA3E07814CFF208EFF20216E2900078
:1016500070120343C0007812E2FE08E2FFE4FCFDD2
:10166000D0001201389000701203B1900076E4753A
:10167000F0011200BD90026EE0FEA3E0FFC39000F7
:1016800077E09F900076E09E5031780890004A12F3
:10169000238F122F5AD3EF9414EE9400501DA215ED
:1016A000301401B34015900227E0FEA3E0FFD39071
:1016B0000226E09F900225E09E4037900076E0FEF3
:1016C000A3E0FFFBAA06E4F9F890007012032B12C6
:1016D00001DE1223A9400E7815E22FFF18E23EC367
:1016E00013FEEF13FF7814EEF208EFF2900270741D
:1016F00001F0900270E06028E4900076F0A3F09092
:1017000000701203C900000000E49001C8F0A3F0CB
:10171000122380E490022EF0A3F090022512234DB4
:1017200022439F04E453C6DFE5C600B5C6F37583C4
:101730000075820775FD0DE4E5FEF4FF7583007505
:10174000820675FD0DE4E5FEB50704F59E80037580
:101750009E0078100000D8FC53C6E043C60843C67C
:101760008075960775970975830075820475FD0D60
:10177000E5FD0404F58F75830075820375FD0DE4A6
:10178000E5FEF4FF75830075820275FD0DE4E5FE4C
:10179000B50704F595800375958375BE0E5392FECB
:1017A0009001007F007E02E4F0A3DFFCDEFA780007
:1017B0007F00E4F208DFFC78FFE4F6D8FD7581C510
:1017C0000217F1020000022210E493A3F8E493A3AD
:1017D0004003F68001F208DFF48029E493A3F85473
:1017E00007240CC8C333C4540F4420C8834004F4F6
:1017F00056800146F6DFE4800B0102040810204009
:1018000080902F44E47E019360BCA3FF543F30E5F9
:1018100009541FFEE493A360010ECF54C025E0607D
:10182000A840B8E493A3FAE493A3F8E493A3C8C54B
:1018300082C8CAC583CAF0A3C8C582C8CAC583CA3C
:10184000DFE9DEE780BEEF75F0021204137427F0C3
:10185000A37410F02212015390026E1203B1900291
:101860004812034390026E12032B1201DE78081215
:10187000029790026E1203B17F0FE4FEFDFC90020E
:101880006E120343D302028690029212032BEF24BE
:10189000F0FFEE34D8FEED34FFFDEC34FFFC229077
:1018A000001BE0902FED932290026E12032BC3EFEA
:1018B000940FFFEE9400FEED9400FDEC9400FC907C
:1018C000026E0203B175A9A075AC0375ADC075AE0B
:1018D000C022E5BAF053BA0F43BA1022E6FFE4FC87
:1018E000FDFE1203431201537807020297122D45A1
:1018F00090001BE0FF022620900069E042F4229055
:10190000028FE004F0221203B19001AE02032B908B
:101910000069E0FFF452F4EF428022E0F5B3A3E067
:10192000F5B2A3E0F5B12290001AE0902FED93F507
:10193000AB2275BF0F43B92053B9FD229002731239
:10194000032B90026F2290027312032B90026F22DE
:10195000301115123007745AF07F0A122CBF900212
:101960001FEEF0A3EFF0C211A21492153002028014
:1019700020D390021AE09400900219E094005011D4
:10198000900220E0940090021FE094005003201089
:101990000A123007745AF0C2148008123007740318
:1019A000F0D21430141890025AE0B401047F018080
:1019B0000790025AE07004FF122C8D122E91A2158E
:1019C000301401B3502890020EE06012D216781243
:1019D000E2FF08E2900243CFF0A3EFF080107F0215
:1019E000122CBF90021DEEF0A3EFF0122926201456
:1019F000173015147F03122CBFEEC313FEEF13FF35
:101A0000900252EEF0A3EFF07812E2FE08E2FF90AF
:101A10000243E0FCA3E0FDD39FEC9E4012ED9FFF4C
:101A2000EC9EFED3EF94DCEE940540031229269041
:101A3000020EE0700F301603122926C216E490023F
:101A400043F0A3F022E4900290F0EF607B122E505E
:101A50009000291203C900000000122D45900029B2
:101A60001226181201389000291203B1900290E05A
:101A700004F0C3941840E3E0FFFBE4FAF9F89000A7
:101A80002912032B1201DE9002911203B1785B90B0
:101A900002911218CC78041203BDE490028FF090EA
:101AA000028FE0FBC39403501F90029112032BEBB3
:101AB00025E025E02431F582E43400F5831203B1FA
:101AC00090028FE004F080D77804120337EF24D01F
:101AD000FFEE348A1218859000251203B190004A57
:101AE0007475F0A37430F0A31203C9001D4C00E418
:101AF00090028FF090028FE0FFC394065027EF25ED
:101B0000E02450F582E43400F5837475F0A374305A
:101B1000F0745D2FF582E43400F583E4F090028FD9
:101B2000E004F080CFE490005CF078087475F2086F
:101B30007430F22220CA03021BFFE5467003021B29
:101B4000FFE4FF74462FF8E6FE746F2FF582E4344D
:101B500002F583EEF0E4F60FEFB405E790026FE0D4
:101B6000FF54F0FEEF540F90026EF0AF06EF24A08A
:101B7000602424F0602824D0603824E07003021B25
:101B8000F324E07003021BF624906003021BFF782D
:101B900058E6440180057858E654FEF68061E4FF7B
:101BA000122EFF785AEFF67856BFFF037621227681
:101BB000FF2290026EE0FD700B7858E630E2501282
:101BC0002E7B803BEDB4010B7858E620E241122ECB
:101BD00086802C90026EE0FDB402117858E630E267
:101BE0002E122E7B90025A7401F08013ED64037064
:101BF0001E7858E620E218122E86E490025AF075FC
:101C00001C0222022926E4900219F0A3F0D21F221E
:101C1000900275120438900278EDF0E4F528F5276B
:101C2000F526F52574FFF52CF52BF52AF529E4F5B5
:101C300030F52FF52EF52DF524900278E0FFE52400
:101C4000C39F507090027512042F75F004E524A410
:101C5000F58285F0831202BD8F348E338D328C3144
:101C6000AF28AE27AD26AC25D3122E45400C8534C7
:101C700028853327853226853125AF2CAE2BAD2A1A
:101C8000AC29C3122E45500C85342C85332B85325C
:101C90002A853129E5302534FFE52F3533FEE52E41
:101CA0003532FDE52D35318F308E2F8D2EF52D05FA
:101CB00024021C298528398527388526378525362D
:101CC000852C3D852B3C852A3B85293A85304185ED
:101CD0002F40852E3F852D3E900278AF30AE2FAD40
:101CE0002EAC2D122E33227B077A0790026F12033F
:101CF000C900000000122E50EB601A74017E00A88B
:101D000003088005C333CE33CED8F9FFADACEF5D09
:101D100070031B80E3EA601A74017E00A802088049
:101D200005C333CE33CED8F9FFADAEEF5D70031AE5
:101D300080E3AF037401A807088002C333D8FCF521
:101D4000AC7401A802088002C333D8FCFFF5AD8F44
:101D5000AE53AACF43AA0490026E1218C212188F73
:101D600042AB1218DD9002731203B112193612033E
:101D700043C312028650061219361203B190026F45
:101D8000120343C00090026F12032B7803120297D4
:101D9000D00012013890026F1203B190026F12034B
:101DA0002B9000651203B143AA3053AAFB90026E38
:101DB000E0F5BA12188FF452AB1218B8227B077AEA
:101DC0000790026F1203C900000000122E50EB6052
:101DD0001A74017E00A803088005C333CE33CED821
:101DE000F9FFADACEF5D70031B80E3EA601A74018C
:101DF0007E00A802088005C333CE33CED8F9FFADEC
:101E0000AEEF5D70031A80E3AF037401A80708808A
:101E100002C333D8FCF5AC7401A802088002C333B6
:101E2000D8FCFFF5AD8FAE53AACF90026E1218C248
:101E3000122D4512261B9002731203B112192C1297
:101E40000343C3120286500612192C1203B19002EA
:101E50006F120343C00090026F12032B780312022B
:101E600097D00012013890026F1203B190026F12E6
:101E7000032B9000201203B143AA3090026EE0F5CC
:101E8000BA1218B822C0E0C0F0C083C082C0D075BA
:101E9000D008C2CFD21130CD03021F3120CC603028
:101EA000CB2285CE54E554C39480401675F003E5EB
:101EB0005490234D1204131204418B518A528953BA
:101EC0008063807385CE35E5547022E535B4100902
:101ED0009002C8E0F452808066E535B42008900294
:101EE000C8E04280805985354605548052E554C388
:101EF0009405500774462554F8A63505548040E5EE
:101F000054B4C0057546C08036E554B4C210785844
:101F1000E630E2057546A080267546A18021E5548D
:101F2000C3948040107851E475F00112041F120030
:101F30005EF5CE800A0554E5502554F8E6F5CED27C
:101F400010D0D0D082D083D0F0D0E03290028BEC91
:101F5000F0A3EDF0E4FD900205E07034C3EF940AC5
:101F6000EE940040061210747401F0121074E070C8
:101F700002C21DE4FF745D2F12107AE07004C21DCE
:101F800080130DEDB40602D21D0FEFB406E78005F5
:101F9000121074E4F090023EE07002A3E0705790DB
:101FA000023CE07002A3E0704D900205E0701B302F
:101FB0001D187F11122CBF90023CEEF0A3EFF090A1
:101FC00002057401F0D21BC21D22900205E06401DB
:101FD0007036C390028CE0940A90028BE09400501B
:101FE000277F12122CBF7C007D0C1200AB90023EAA
:101FF000EEF0A3EFF02290023EE07004A3E0640153
:102000007006900205F0D21C22122E5090026F1220
:1020100018C278001203FA0000000090026E7405E6
:10202000F075ABFF122D45780012034F12261B12DC
:10203000013878001203BDE4F5AB122D457800128B
:102040000337C004C005C006C00712261BA804A998
:1020500005AA06AB07D007D006D005D0041201456B
:1020600078001203BD90026EE014F0E070B37800C7
:1020700012034F7F007E817D297C001201DE9002D9
:10208000701203B190027012032B9002781203B108
:102090007F967E007D007C00122BF6E47B32FAF9FD
:1020A000F8C31202865006785B7696800A9002701A
:1020B00012032B785BA60790026FE0F5BA1219178E
:1020C00022900283120438900286EDF0E4F525F5A3
:1020D0002674FFF527F528E4F52EF52DF52CF52BC4
:1020E000F524900286E0FFE524C39F5059900283B7
:1020F00012042F75F002E524A4F58285F083120006
:10210000D3F52A85F029D39526E52995254006851E
:102110002925852A26C3E52A9528E52995275006ED
:10212000852927852A28E4FCFDE52E252AFFE52DB3
:102130003529FEED352CFDEC352B8F2E8E2D8D2C7B
:10214000F52B0524809CE4852639852538F537F55F
:102150003685283D85273CF53BF53A852E41852D72
:1021600040852C3F852B3E900286AF2EAE2DAD2CA8
:10217000AC2B122E33229002861203B1E47BE87A54
:1021800003F9F89002861211199002961203B19089
:102190000296121058A804A905AA06AB0790028659
:1021A00012109290029A1211CF90029612105F12A2
:1021B000110A90029E1203B190028A12032B900220
:1021C0009E12105FA804A905AA06AB0790029212FE
:1021D00010929002A21211CF90029A12105F9002F8
:1021E000921203B1900292120343C000C001C002D8
:1021F000C0039002A2121058D003D002D001D00028
:1022000012013812110A9002A61203B1E47FE87E8F
:1022100003FDFC90029E12105F9002A61210F422A1
:10222000122D1A123014122FFA1228D8122EB012B0
:10223000000E122F99D2AF751C01E51C24FE601E02
:1022400014603614605614606024047067122FDD29
:10225000122F70122F86122F16E4FF122D96D2D84D
:10226000E4900213F0A3F09002AAF0A3F0122B8CDA
:10227000E51D70FC122F2D8036D2D8E51D70FC12A2
:1022800013708F1C1219409002C7E0900078F090F4
:1022900002C704F0122B56122F2D801B122DE28F35
:1022A0001C1222B9120E2A800E1209B4122D6E755C
:1022B0001C038003751C0112301AE51C64047003B2
:1022C00002222A121B2402222A7F85902FF6E493F1
:1022D000FC740193FD122FCD7F87902FF67401932C
:1022E000249CFDE49334FFFC122FCD7F897D647C18
:1022F00000122FCD7F8F3018187D397C30122FCDF2
:102300007F8D7D397C30122FCD7F917D397C30805F
:102310001F7812E2FC08E2FD122FCD7F8D7816E2C5
:10232000FC08E2FD122FCD7F917814E2FC08E2FD5B
:10233000122FCD7F9F900264E0FCA3E0FD122FCD11
:102340007F9D900266E0FCA3E0FD122FCD7FA17D72
:10235000027C00122FCD0226E2F0A3F0A3F0A3F03E
:10236000A3F0A3F0227816E2FC08E2FD90020BE055
:10237000FEA3E0FF22D390021AE09400900219E03D
:1023800094002290021CE0940090021BE094002232
:1023900090004A7808E2FF08E2CFF0A3EFF022E2D3
:1023A000FE08E2FFE0FCA3E0FD22E29DFF18E29CB4
:1023B000FE90026EF0A3EFF022D3900253E094005F
:1023C000900252E094002290024CFFEEF0A3EFF056
:1023D00022C3902FF67401939FE4939E22900223D0
:1023E000E07002A3E0705830002078149001B91218
:1023F000238FC39FEC9E5010C312239A1223C15007
:102400003512243040398029802C7814E2FE08E20D
:10241000FF7812E2FC08E2FDC39FEC9E501AC378DD
:102420001512239AD39432EE9400400A12243040BD
:102430000E12292680028000E490022EF0A3F022E2
:102440007F05122CBFEEC313FEEF13FF90022EE4A4
:1024500075F0011200BDFCD3E5F09FEC9E22780ED2
:102460001203379002731203B17804120337122A51
:102470003C9001AE1203B190006A12032B9001AEA2
:10248000120343C312028650037F02229001AE1250
:10249000032B1228389001B9EEF0A3EFF09001D091
:1024A000E0FFA3E09001E4CFF0A3EFF09001B9E0EA
:1024B000FEA3E0FF1212009001D0EEF0FCA3EFF0BB
:1024C000FD7808E2FE08E2FF120BF79001E6EEF05D
:1024D000A3EFF07812EEF208EFF27F052201007907
:1024E000FE000E0100BE0100C60101B201015F0144
:1024F00001AE0101B90101CA0101D00101E6FE00EE
:1025000012FE0014FE0016FE0018FE0000FE00047D
:1025100001003E010042010046FE00080102640184
:10252000026C01027401027C01023A0100DE010129
:10253000610102600102680101B60100CE01016182
:1025400001020501023C01023E010219900245E030
:1025500030E10912258B20180312259B900245E0DB
:1025600054FDF0900210E0540FFF6027900245E008
:10257000FE30E2067864A6078010EE30E31C90027D
:1025800010E0540FC454F07864F620180612258B1E
:1025900012259B900245E054F3F022C2107F0812EE
:1025A0002CBF900221EEF0A3EFF022C2927F217E99
:1025B000007D007C00122EE7D2922290028B120343
:1025C000B1E47F607EEAFDFC90028B12103E400475
:1025D000D2078002C207E47FFF7EFFFDFC90028BE2
:1025E00012103E400C90028B1203C90000FFFF80C6
:1025F00030E4FF90028B12103B5026122926301E29
:10260000167F15122CBF7C007D031200AB90024E8A
:10261000EEF0A3EFF0C21E90028B1203C900002758
:102620001090028B12032B2212034390001AE0FF3A
:10263000EFC39404500553B9EF800343B910EF6022
:1026400003B4040B85B71985B61A85B51B803AEF1C
:1026500064016004EFB4050B85EB1985EA1A85E97E
:102660001B8026EF64026004EFB4060B85F3198526
:10267000F21A85F11B8012EF64036004EFB40709BE
:1026800085FB1985FA1A85F91BAF1BAE1AAD19AC7B
:102690001822C0E0C0F0C083C082C0D075D01053F3
:1026A000B9FDE51D6401702212261B78001203BDDE
:1026B0001218E87F01122E079002C7E0FF1229FED0
:1026C00043B901D2D8751D05801DE51D640570173D
:1026D0001218E0780A1203BD12188FF452AB53AAF5
:1026E000FB1218FF751D00D0D0D082D083D0F0D05F
:1026F000E032E47F557E06FDFC780012034F12188D
:102700004540031218987FFF12186A400678C57674
:10271000FF800A90026E12032B78C5A607E47FD6CD
:102720007E0BFDFC900081120343121845400312FA
:102730001898E47FFF12186B4005789376FF22907B
:10274000026E12032B7893A607229002791203B12E
:1027500090027612043890027912032B7806120246
:10276000AA9002791203B190027D1211C58005C3AF
:1027700033CE33CED8F91211389002791210F4907A
:10278000027DE0F9F812119D90027612042F1202D8
:10279000EDAF27AE26AD25AC24780612119D229010
:1027A00002861203B190028312043890028612034B
:1027B0002B780A1202AA9002861203B190028A12A2
:1027C00011C58005C333CE33CED8F912113890022B
:1027D000861210F490028AE0F9F81211A99002838F
:1027E00012042F1202EDAF27AE26AD25AC24780AD5
:1027F0001211A9229002481203C900000000E4FF50
:10280000122CEE75ABFF122D4590024812261812BD
:1028100001389002481203B1E4F5AB122D45900245
:102820004812032BC004C005C006C00712261BA80F
:1028300004A905AA06AB07D007D006D005D004121C
:1028400001459002480203B190006A12034312014D
:10285000451225AB90026FEEF0A3EFF07A0179C537
:102860001210DF7405F0A3EEF0A3EFF07A0179BB4C
:10287000122A76A215301401B350157B017A017922
:10288000BB7D051220B19001C6E544F0A3E545F0FB
:1028900090026FE0FEA3E0FF22C0E0C0F0C083C062
:1028A00082C0D075D000C000C28D758C32758AEBA5
:1028B0009002AAE475F0011200BDC39002ABE0944F
:1028C000149002AAE094004012900213A3E0785FF3
:1028D000F6900213E4F0A3F0120004D000D0D0D0A0
:1028E00082D083D0F0D0E032E4FF122EFF785AEF8E
:1028F000F67856BFFF047621800276FFE47864F60E
:102900007857763108F6902FF693FE740193FF788E
:1029100085A60608A607EF249C7888F6EE34FF18F3
:10292000F678897600087664E4122E71F6122E711C
:10293000765075505522E51D70FCE4FF121A35E4FF
:10294000FF12073FE490020EF0900210F090022D6B
:10295000F090022312234990022BF0A3F090023052
:1029600012234912234C900063F0A3F0A208300018
:1029700001B3500D7F04122CBF90021BEEF0A3EFA9
:10298000F022A907E4FEFD900245E0FC703FEF5401
:1029900001FB90020FE054016B600D30020A201819
:1029A00007EC4402900245F090020FE030E006EEA2
:1029B0004410FE8004EE4401FEE930E006ED4401DF
:1029C000FD8004ED4410FDEE5D900210F022E4FF66
:1029D00090020EE07016902FF693FC740193FDC3E5
:1029E0007819E29D18E29C401F0F801C902FF6740E
:1029F0000193249CFDE49334FFFCC37819E29D18F5
:102A0000E29C4004EF4401FF9002C6EFF02212184E
:102A1000E89002C7E0D394034002E4F0EF146012A0
:102A200014601714601D2403702112188FF452AB28
:102A3000800D12188FF452AB800E12188F42AB53D8
:102A4000AAFB2212188F42AB43AA042290026F12F3
:102A500003B1900078E0900277F090027312032B9C
:102A600090027C1203B1900277E0900280F0900215
:102A70006F12032B1214AD900277E0FF12049290B4
:102A800001A212032B2290028AE0FEA3E0FFC00302
:102A9000C002C00112111F75F00212117CD001D0CA
:102AA00002D003EE8FF012010B9002861211711208
:102AB000111FFF900289E0B50704E4120099227EFD
:102AC00005EF5401FD90020EE054016D6007EFF038
:102AD000E490022DF07858E630E00890020EE070A5
:102AE000027E0A90022DE004F0C39E50037F002274
:102AF00090022DEEF07F012290027C12032BC00386
:102B0000C002C001900278121122121179D001D0B6
:102B100002D003120307900278121171900278120A
:102B20001122FF90027BE0B50704E4120099229085
:102B3000027D12032BC003C002C001900279121162
:102B400022121179D001D002D0031203079002792A
:102B5000121171900279121122FF90027CE0B507E8
:102B600004E4120099221218E8E4FF122CEE121865
:102B7000C575BB01900069E0FF900024E04FF5B4FB
:102B8000E4F5B3F5B275B11012192253BAFE43B988
:102B900001D2D8E5B930E1FBE4F5BF227858E6F57B
:102BA00020A208300001B350147F04122CBF900201
:102BB0001BEEF0A3EFF0122926A2009208A20A3021
:102BC0000201B35004A202920A301305122926C250
:102BD0001322000501080202030104010501060693
:102BE0000701080109070A010B010C030D050E0A74
:102BF0000F011001110A123C13011401153C1601BA
:102C0000173C180219029002741203B19002781254
:102C1000032B900274120343D3120286400B9002DE
:102C20007812034390027480099002741203439057
:102C3000027812032B1201452290002512032BABC0
:102C400007AA067804120337C3EF9BFFEE9AFE7BB8
:102C5000017A00794CE4FCFD90027D7408F01227A3
:102C60003A7808EEF208EFF27F05227814E2FE08C7
:102C7000E2FF7812E2FC08E2FDD39FEC9E400BEDF0
:102C80009F7817F2EC9E18F28006E47816F208F2AC
:102C90007816E2FF08E208CFF208EFF222E4F51D11
:102CA00053B9FD53B9DF43CC02C2D9539FFD4387CB
:102CB00060C28DEF700675BD0D75BC01122FAB752E
:102CC000BE0CD28C20C90343870300000000227D84
:102CD000017C00EFC3941A5020EF25E024C3F58255
:102CE000E4342BF583E493FF7E00900215E0FCA30F
:102CF000E0FD1200ABAC06AD07AE04AF052253BA3F
:102D00000F43BA3075BBFF1218B5900024E0F5B43C
:102D1000EF700AF5B375B27575B130800690002179
:102D200012190B12191753AAFB22E4F5E3439F1063
:102D30007F03FEFDFC122EE7439F027F037E007D92
:102D4000007C00122EE7539FEF75BE0EE4F5BFF531
:102D5000B9759276221218E875BF0F0000000000C6
:102D600000000000000000000000000000D2D85366
:102D7000B9FD43B901E5B930E1FBE4F5BF229002AA
:102D800011E0FF900210E0FE6F60143002047864DE
:102D9000A606E4FF122CBF900229EEF0A3EFF090FC
:102DA0000210E0A3F022EF6003D38001C3920A92E5
:102DB000027858A607900215E4F0A3745AF07F0930
:102DC000122CBF900219EEF0A3EFF02290001AE04F
:102DD000902FED93FF900024F090001BE0902FEDDA
:102DE00093FE900069F0EF4E42D442F442E4F45274
:102DF000DC2290026E7405F0122C2912244E9002EF
:102E00006EEFF0BF0205D213E0FF22122C5B122EF0
:102E1000CE90026EE0FF2253BA0F43BA2075BBE694
:102E20001218B5900069E0F5B4EF7009F5B375B20A
:102E3000AF75B1C82290006612190B2274FFF5F02D
:102E40000200BDE0FBE4FAF9F81201DE8F458E4482
:102E50008D438C4222AB34AA33A932A831020286B8
:102E600053BAFEE5B920E004E51D6005E5B930E19F
:102E7000FBE4F5BF53B9FD53B9FE1218FFE4F51D8D
:102E80002208F608F608F608F6082254FBF6900227
:102E900045E04408F0224404F6900245E04404F082
:102EA00022E490026EF075BE0E439F027F03FEFD8A
:102EB000FC122EE775BC02E4F5BFD2D953CCFD223B
:102EC000438901C28DD2A953B8FD120003900213A9
:102ED000F0A3F0758C32758AEBD28CD2AF227F765C
:102EE0007E107D017C00780412034FD312028640CD
:102EF00003C21822D2182290026F1203B190026FFF
:102F000074FF12037EEC4D4E4F60030080EF22E40D
:102F1000FFF582F5837440FEE493F42FFFA3EEB532
:102F200083F6227F0022E4900221F0A3F07F0A12B0
:102F30002CBF90021FEEF0A3EFF0D210221218E87F
:102F40007F01122CEE751D0112192243BA0143B9FB
:102F500001D2D82241001A0541001B0644001CFF83
:102F6000FFFFFF04180000000000D3EF9DEE9C401F
:102F700007EF9DFFEE9CFE22C3ED9FFFEC9EFE221D
:102F8000E4FF122CEE121FF9121DAD7F01122CEE80
:102F9000121A350227E4E4FF122E0712300E121C1B
:102FA000D77F01122E0702073F902FF8E493FF749A
:102FB000019390006ECFF0A3EFF022438901C28C01
:102FC000C28F120003758CFB758AED2243D5045322
:102FD000F5FB43ED04E4900245F0D2922220C90CA7
:102FE000C2AFA807A60408A605D2AF222275AA3B45
:102FF00053BAF343BA0C43B92053B9BF22010204B8
:10300000081020408018028A0064C2DA53D80F43A7
:10301000D8D0D2D8D2D922900215E4F0A322785B7E
:10302000E608F622122DBC022FBC02253CFFFFFF52
:00000001FF
